:020000040800F2
:10000000300D0020D9000008272300080320000835
:1000100000000000000000000000000000000000E0
:10002000000000000000000000000000A123000804
:10003000000000000000000029230008A32300089E
:10004000EB00000800000000EB000008EB000008D7
:10005000EB000008EB000008EB000008EB000008D4
:1000600000000000EB000008EB000008EB000008B7
:10007000EB000008EB000008EB00000800000000A7
:10008000EB0000080000000000000000EB0000088A
:10009000000000000924000819240008EB000008F3
:1000A000EB000008EB000008EB0000086D2E0008D4
:1000B000EB0000080000000000000000000000004D
:1000C0000448854600F09CFB00480047F9370008CB
:1000D000C046C046300D0020044880470448004711
:1000E000FEE7FEE7FEE7FEE7FEE7FEE70524000881
:1000F000C100000830B50B46014600202022012433
:1001000009E00D46D5409D4205D31D469540491B4B
:100110002546954040191546521E002DF1DC30BD94
:1001200070B500242546002801DA01244042002948
:1001300001DA01254942FFF7DDFFAC4200D0404221
:10014000002C00D0494270BD03460B439B0703D0EF
:1001500009E008C9121F08C0042AFAD203E00B788C
:100160000370401C491C521EF9D27047D2B201E004
:100170000270401C491EFBD270470022F6E710B502
:1001800013460A4604461946FFF7F0FF204610BD05
:10019000421C0178401C0029FBD1801A704730B501
:1001A00005460020034600E05B1C934205D2EC5C50
:1001B000C85C201A01D1002CF6D130BD70B50646BE
:1001C00002F0AAFE046805460A220021304600F02B
:1001D00055FA2C6070BD0000F0B50746084658403F
:1001E00087B0C00F049048000E46590040084908E7
:1001F000BC1A884105D2384631461E4617460B4682
:1002000002465800400810434DD0300D0390400581
:100210005900400D490D0590401A0290402873DAAC
:1002200018030121000B090508430190049800926E
:10023000002806D01146019A4942002090410091C1
:100240000190029840210A1A0199009800F0E2F901
:1002500005460C466B4607CB00F0FDF9C01971410D
:10026000039A0E0D0023D71756401A467A401643BC
:1002700044D0049A002A2DD0029A012A039A15DC50
:100280001205C01A914101263605001C7141D20F9A
:10029000059ED2070093019202962A46234600F05B
:1002A00032FA07B0F0BD38463146FAE71605234A60
:1002B0000F46B218C01AB74101210905001C4F4171
:1002C00000187F41114618187941E20F10436D194B
:1002D000644113E0E2076D0815436408C207144344
:1002E000039A01261205C01A91413605001C71417E
:1002F000CE07400830434908C01851412A462346DA
:1003000000F0F4F9CDE7FFE7049801224000C1179F
:10031000121A00238B4104983146C417381AA141A0
:10032000EEE730B40124E407634030BC54E730B456
:100330000124E407614030BC4EE700000000E0FF0C
:10034000F0B51FB488B00B9909980024484009996A
:10035000C00F490049080991C0070B990090490056
:1003600049080B9109990898A64608431CD00B9997
:100370000A98084318D0099801244000420D48000B
:10038000410D099824050003000B204309900B98A8
:100390000003000B20430B9050181C49401800220A
:1003A00001901446104605E0002001460DB0F0BD56
:1003B000032801DA034600E003239C46C11A0AAE73
:1003C0000AE05F0008ADED5B4F00F75B7D4300275F
:1003D000AA187C41491C5B1E6145F2DD410004AB5B
:1003E0005A522104120C0A43240C401C0828DFDB5B
:1003F000019802900099704601910090059B049A23
:100400000799069800F07FF9D0E700000DFCFFFF88
:10041000F0B50C465C4085B0E40FE40703944C0053
:100420000026640859009446490802460296224371
:1004300021D062460A431ED06200570D4A000E03C7
:100440002303550D012402462C492405781B1B0B60
:10045000360B401823432643614600901C46501A31
:10046000B44103D30098401C009002E09218009819
:100470005B41002803DA0020014605B0F0BD0020F2
:10048000012109050746864611E064461D46141BF6
:10049000B54106D36546521BB341744607430C432E
:1004A000A646CD0740084908284392185B410546F7
:1004B0000D43EAD11046184313D060461946504008
:1004C0007140084306D06046101AB34106D201229B
:1004D000002306E000220123DB0702E00122D243D1
:1004E0005310009874460105381C6141029C039D1D
:1004F0000019694100F0FAF8BFE70000FD030000B1
:100500000EB505490291002100910A460B46019162
:1005100000F0F9F803B000BD3304000070B5CD0F52
:100520004A0009030123090B1B0519430B4BED0777
:100530000024520D9A4201DA002070BD074B34337B
:100540009A4203DC9A1A00F075F802E00449511847
:1005500088402C43F1D0404270BD0000FF030000F2
:10056000CDFBFFFF10B5002904DB0124E407404266
:100570008C412146002B04DB1C460123DB07524241
:10058000A3418B4200D1824210BD000010B500296A
:1005900004DB0124E40740428C412146002B04DBAC
:1005A0001C460123DB075242A341994200D19042ED
:1005B00010BD0000F0B51FB40646002082B005460D
:1005C0004024019100901BE0019922460F463046DD
:1005D00000F030F8049A059B801A994110D3104618
:1005E0001946224600F016F8361A8F410197224626
:1005F00001200021009F00F00DF838184D410090B7
:100600002046641E0028DFDC019B00982946324604
:1006100007B0F0BD10B5202A04DB0146203A914016
:10062000002010BD914020239C1A0346E34019434B
:10063000904010BD10B5202A04DB0846203AD04077
:10064000002110BD0B46D340D0402024A21A914077
:100650000843194610BD10B5202A06DBCB17084603
:10066000203A1041C1170B4306E00B461341D0401E
:100670002024A21A91400843194610BDF7B5009CEA
:100680000F4600262578641C002D05D000F0CAF81E
:100690000068405DC007F5D12B2D02D02D2D18D05C
:1006A000641E39462046029A00F0C0F8002F04D09C
:1006B0003968A14201D100993960710502240029ED
:1006C0000BDA4042002803DD02F026FC0460A0079C
:1006D000FEBD012080020643E3E70028F8DA02F0BD
:1006E0001BFC04600048FEBDFFFFFF7F10B5002B20
:1006F00008DA0024401C614192185B411A4301D181
:100700004008400010BDF0B51FB482B005460C0093
:1007100003D0084602F0C6FB02E002F0C3FB203023
:100720000246009021462846FFF774FF049B059A75
:1007300004460F4618431143084314D0184610438B
:100740001BD0009840210A1A18460599FFF772FF3E
:1007500005460E46009A05990498FFF75BFF08438B
:1007600005D0012004E02046394607B0F0BD002046
:10077000C11705430E432C43374300990E98630578
:10078000401A7905E40A00220C43FD0A0A3002D51A
:1007900000200146E9E70105101969410C9C0D9DF7
:1007A00000196941FFF7A2FFDFE770B54B005B0856
:1007B00003430BD04B005C0D002633466542B3412A
:1007C000D417AD1AA34102DB0020014670BD12050B
:1007D0003018514170BD00000EB5C217C10F504016
:1007E000CA0740180021054B0293019200910A4666
:1007F0000B46FFF788FF03B000BD00003304000084
:10080000064C0125064E05E0E36807CC2B430C3C63
:1008100098471034B442F7D3FFF756FC383B000832
:10082000583B000800487047343B0008F7B582B0D9
:10083000029C00272078641C15460197302802D0BE
:10084000002D15D015E020780127641C782804D0ED
:10085000582802D0002D09D00BE0002D01D0102D1A
:1008600007D1002710252078641C02E0082500E04D
:100870000A250026009610E0009901276943081810
:10088000020C294680B2714300908E1838048642CB
:1008900001D3012001902078641C294600F019F84A
:1008A0000028E9DA0398002805D0002F01D0641E43
:1008B00000E0029C04600198002806D002F02CFBA6
:1008C00002210160C81E05B0F0BD00993004084344
:1008D000F9E73A2800D23038202302469A43412AC9
:1008E00001D310463738884201D30020C0437047F7
:1008F0000148006880B270474024014004498A687A
:1009000004231A438A6000228A62886270470000CA
:1009100000240140024801684907FCD570470000E7
:1009200000240140F8B5C14DC14CC24FAFE0C148F1
:1009300001F001FD2178C04E7218491C2170107021
:100940002328F3D10422BDA13046FFF728FC00285C
:1009500004D13046FFF71CFC052807D00422B7A1BC
:10096000B548FFF71CFC002805D06FE00120E070BF
:100970000020208159E0B048FFF70AFC052865D91E
:10098000AD48FFF705FCC2B20092311DAD48521FC1
:10099000FFF7DAFB009A0021521F19E0A948405CDA
:1009A000302814D0312812D0322810D033280ED05D
:1009B00034280CD035280AD0362808D0372806D05D
:1009C000382804D0392802D02079401C2071491CD5
:1009D0009142E3DB2079002815D09A489AA180380B
:1009E00002F04CFA974982B27D232062DB00803905
:1009F0009E4801F099FA00999248491FFFF7BDFB04
:100A00000020E07020718F48FFF7D8FB208100990B
:100A10008C48491FFFF7B1FB2189002904D0012030
:100A2000A07060708A0008E00020A07029E08600B5
:100A3000AB58AE599B19AB50401C8842F7DB88007D
:100A40002858FFF76DFB2860022019E004227BA1E3
:100A50007948FFF7A4FB002813D07A487AA18038A0
:100A600002F00CFA774982B27D232062DB008039E4
:100A70007E4801F059FAFF216F48FFF77EFB002006
:100A8000E070FF216C48FFF778FB00202070798828
:100A90003888814200D04AE77D26F600E068771E5C
:100AA000B0427DD9E07800282FD0012861D00228FB
:100AB0002AD100F031FAA169721E411A20895043EF
:100AC000814221D95B486AA120382A6802F0D6F910
:100AD00058482038FFF75CFB01465648203801F0A3
:100AE00017FCA0710346574866A180382A6802F0B7
:100AF000C5F9544982B22062334680395B4801F01F
:100B000013FA00F009FAA061F8BD00F005FA2169B6
:100B1000401AFF21F4318842F6D9E16BA06BFFF750
:100B2000FDFC0246434852A1203802F0A7F9414893
:100B30002038FFF72DFB01463E48203801F0E8FB46
:100B4000A0710546E16BA06BFFF7E8FC02463D484B
:100B50002B464CA1803802F091F93A4982B22062CA
:100B600033468039414801F0DFF900F0D5F92061C2
:100B7000F8BD00F0D1F96169401AB842F8D9E16BCB
:100B8000A06BFFF7CBFC02462A4839A1203802F0BF
:100B900075F928482038FFF7FBFA0146254800E0A0
:100BA0001BE0203801F0B4FBA0710546E16BA06B9F
:100BB000FFF7B4FC024623482B4632A1803802F0EE
:100BC0005DF9204982B2206233468039274801F01E
:100BD000ABF900F0A1F96061F8BD0028FCD100F08C
:100BE0009BF9E169401AB842F6D912482BA1203886
:100BF00002F044F90F482038FFF7CAFA01460D48C1
:100C0000203801F085FBA07102460E4828A18038EB
:100C100002F034F90B4982B220623346803913481E
:100C200001F082F900F078F9E061F8BD5C01002084
:100C300000000020FC0600205C00002070696E6748
:100C400000000000DC050020436F6D6D616E6420C4
:100C50004552524F522120506C656173652C2074AF
:100C6000727920616761696E210A0D00A008002079
:100C70002354656D70657261747572652C25642CE2
:100C8000000000002354656D7065726174757265B3
:100C90002C25642C25580D0A000000002354656D96
:100CA00070657261747572652C33323736370000A7
:100CB0002354656D70657261747572652C333237BB
:100CC00036372C25580A0D0072B6FEE7F0B500281D
:100CD00008D0014620314A79022A05D00422C26395
:100CE000002008710120F0BD026813680E24A343A0
:100CF0001360426C1468FF2301339C431460026844
:100D000014686408640014600C4A5568066C1C245E
:100D1000264001242746B7403D435560826CC56C90
:100D20005560026D002A05D015689D431560826DDF
:100D3000406D42604C7100200871F0BD000002401F
:100D4000F8B50024024620325179022903D004214B
:100D5000C16301242DE001680B680E25AB430B60D5
:100D600001680B685B085B000B60416C0B68FF253A
:100D70000135AB430B6010494D68066C1C231E40C7
:100D800001231F46B7403D434D60816CC56C4D60EB
:100D9000016D002906D00E681D02AE430E60416D44
:100DA000856D4D60537100211171816B002900D058
:100DB00088472046F8BD000000000240F0B500233F
:100DC00003249AE02A4601259D402A407ED00E79D0
:100DD000B607B60F012E01D0022E16D1866827461F
:100DE000B4465E00B646B7406646BE43B446CF68DA
:100DF0007646B7406646374387604668AE430D790E
:100E0000ED06ED0F9D40354345600D79ED43AD078F
:100E100008D0C5685F002646BE40B5438E68BE4018
:100E20002E43C6600D79AD07AD0F022D0ED1DD0842
:100E3000AD002D18AC462D6A5E07F60E0F27B740A1
:100E4000BD430F69B7402F4365462F6205685F00B9
:100E50002646BE40B5430E79B607B60FBE402E43B8
:100E600006604D68AD03AD0F46D09E08264DB60016
:100E70007519AC462D6E9E07F60E0F27B740BD4381
:100E800005273F07B84201D100270FE01F4FB842A6
:100E900001D101270AE01E4FB84201D1022705E027
:100EA0001C4FB84201D1032700E00527B7402F436C
:100EB000154D664637662D684E689543F60200D597
:100EC0001543114F3D607D68954300E014E04E6886
:100ED000B60200D515437D600B4D80356E684F68B6
:100EE0009643BF0300D516436E602E684F68964345
:100EF000FF0300D516432E605B1C0A681546DA40D6
:100F000000D05FE7F0BD0000001802400004005070
:100F100000080050000C0050014880687047000035
:100F20004800002002488168027889188160704773
:100F30004800002010B508480024016882151143BC
:100F40000160032000F00AF8002801D0012401E02C
:100F500000F028F8204610BD0020024070B50F4E6A
:100F6000002431780546002915D07D20C000FFF708
:100F7000C1F801460A480068FFF7BCF800F0F6FB2C
:100F8000002808D1042D06D200222946401E00F078
:100F90002BF8756000E00124204670BD4800002059
:100FA0005400002008B5094801680122114301607E
:100FB00000681040009005484038C26B01040A43A5
:100FC000C263C06B0840009008BD000040100240A2
:100FD000002805DBC106C90E0120884001490860D0
:100FE0007047000000E100E010B501F073FF10BD94
:100FF00010B50F4C21680322520291430143216036
:10100000C11FFF39FA390ED10A480621006848434A
:101010000949FFF76FF8401C02E0002805D0401E88
:1010200061694905F9D4002010BD032010BD0000FE
:10103000007000405400002040420F00F8B5044604
:10104000006800264D4D800358D54C480027403895
:10105000C06BC00009D449484038C26B01040A4340
:10106000C263C06B084001270090454801688215A3
:1010700011430160FFF750FF009005E0FFF74CFFC0
:101080000099401A022825D83D480068C005F5D5CA
:10109000E8690321090208400FD0616981420CD040
:1010A000E86903210902EA698843012109040A4326
:1010B000EA61EA698A43EA61E861C0070FD0FFF795
:1010C0002BFF009008E0FFF727FF0099411A2D48F9
:1010D000814201D9032609E0E8698007F3D5E86970
:1010E00003210902884361690843E861002F05D0A4
:1010F00022484038C26B01048A43C2632078C0078B
:1011000005D06869616880088000084368612078BC
:10111000800606D56869032109038843A16808434E
:1011200068612088400411D56869216980008008C1
:1011300008436861012120698907884206D10F4868
:101140004038C168012212041143C16020880005A3
:1011500012D56869032189038843E16808436861FF
:101160000121E0688903884206D104484038C168FB
:10117000012212041143C1603046F8BD4010024004
:101180000070004088130000F8B50F46060043D0F9
:101190004D4D28684007400FB84213D22868C00858
:1011A000C00038432860FFF7B7FE044605E0FFF7AC
:1011B000B3FE011B4548814261D828684007400FB3
:1011C000B842F4D13068424C81070DD5400704D5B0
:1011D000A068072109030843A060A0680F21090245
:1011E0008843B1680843A0603078C00732D0706887
:1011F00001280AD002280BD000280FD034494031F2
:1012000003280ED0C969890704E02168890301E039
:1012100021688901002906DB0120F8BD2168490504
:10122000F8E7096AEFE7A168C908C9000143A160AE
:10123000FFF772FE009006E0FFF76EFE0099411A7C
:10124000224881421BD8A068382108407168C90033
:101250008842F1D128684007400FB84217D91A4890
:101260000168C908C90039430160FFF755FE05460A
:1012700007E0FFF751FE411B1448814201D90320CA
:10128000F8BD114800684007400FB842F1D13078EE
:10129000400706D5A068072109038843F168084381
:1012A000A06000F031F8A1683C2289091140094A88
:1012B000515CC906C90EC840074908600748006864
:1012C000FFF74CFEF8BD000000200240881300002C
:1012D000001002400C3A0008540000204C0000208E
:1012E0000648074900688968064A4904490F890089
:1012F000515CC906C90EC840704700005400002068
:10130000001002404C3A000810B5204CA068204A5A
:101310008006400F16D0A0688006410F50100129AA
:101320000FD0A1688906490F022912D0A068800653
:10133000400F042823D0A0688006400F032821D046
:10134000002010BD206801218004400F814010461C
:1013500012E0E1688B07E1689B0F4906490F491CC1
:10136000032B00D01046FEF7C5FEE1684904490E84
:101370004843E168490F491CFEF7BCFE10BD01203F
:10138000C00310BD7D20000210BD0000001002400F
:101390000024F400F8B504007ED020783827C00778
:1013A000E94D002846D0A868E96838408907890FC8
:1013B000102802D008280BD001E0032908D0012012
:1013C0006268000482420AD129680143296015E05D
:1013D000286880032ED560680028DDD02AE0052328
:1013E00001211B0489049A422A6802D10A432A6017
:1013F000EAE782432A6028688843286060680028FA
:101400000CD0FFF789FD064604E0FFF785FD801B41
:10141000642873D828688003F7D50BE0FFF77CFDBC
:10142000064604E0FFF778FD801B6428F1D82868A1
:101430008003F7D42078800769D5A868E968384028
:101440008A070721920FC902102802D0002813D062
:1014500001E0022A10D0E068002846D028688843BE
:101460002169084328602868FF210131084328606A
:10147000FFF752FD06462CE02A68520502D5E268C5
:10148000002A89D06A687F231B029A4363691B0282
:101490001A436A60002800E08DE00ED12868884376
:1014A000216908432860286801218004400F814099
:1014B000A648FEF71FFEA6490860A6480068FFF789
:1014C0004DFD002877D122E0FFF726FD801B022882
:1014D0009FD828684005F7D568687F2109028843AE
:1014E000616909020843686011E02968FF20013042
:1014F00081432960FFF710FD064605E098E0FFF7FD
:101500000BFD801B022884D828684005F7D420787A
:10151000914E00072ED5A8688006400F03280AD0F8
:10152000A0690028306A16D0012108433062FFF715
:10153000F3FC07460BE0306A80071BD5A069002842
:101540009FD017E0FFF7E8FCC01B022870D8306A74
:101550008007F7D50EE0400840003062FFF7DCFC62
:10156000074604E0FFF7D8FCC01B022860D8306AA9
:101570008007F7D4207840076CD5A868002780063C
:10158000400F042818D0E86BC00008D4E96B012094
:1015900000070143E963E96B0140012700916F48AF
:1015A0000168C90519D40168821511430160FFF76C
:1015B000B3FC00900DE083E0F06980074AD5A06895
:1015C00000287DD046E0FFF7A7FC0099401A0228CA
:1015D0002ED862480068C005F5D5A168012910D051
:1015E00004200529F16911D049084900F161F16928
:1015F0008143F161A068002816D0FFF78DFC0090B0
:101600000EE0F06901210843F061F3E70143F16165
:10161000F7E7FFF781FC0099411A5148814265D8EC
:10162000F0698007F5D50EE0FFF776FC009007E043
:101630005CE0FFF771FC0099411A4948814255D896
:10164000F0698007F5D4002F04D0E96B0120000772
:101650008143E963E069002873D0A9688906490FCE
:1016600002294DD0012636060228286805D0B0434D
:101670002860FFF751FC04463AE0B0432860FFF7CA
:101680004BFC074604E0FFF747FCC01B02282DD89F
:1016900028688001F7D4616A206AA26A0843E16A77
:1016A000120211430843216B0843E9682D4A114097
:1016B0000843E860286830432860E868012100E0BA
:1016C0003DE009070843E860FFF726FC044604E014
:1016D000FFF722FC001B022808D828688001F7D5F4
:1016E0002FE0FFF719FC001B022801D90320F8BDE9
:1016F00028688001F5D4E8681B490840E86020E0CC
:101700000128F4D0E868226A8107890F914216D136
:101710007021626A0140914211D17F21A26A0902BF
:101720000140120291420AD11F214904E26A01409C
:10173000914204D1400F216B4007884201D0012023
:10174000F8BD0020F8BD0000001002400024F400A5
:10175000540000204C000020401002400070004067
:10176000881300008C80C11FFCFFFEEF094910B5F3
:10177000401E884201D9012010BD074C6061032141
:10178000081F01F0A7FB0020A061072020610020B6
:1017900010BD0000FFFFFF0000E000E07047704751
:1017A000704770B5040005D025462035687F0028B5
:1017B00002D006E0012070BD00202877204600F00E
:1017C00017F802206877211D206800F02DFE012205
:1017D00040342272AA77EA7722706270A270E270B7
:1017E00022716271A271E2716A77002070BD0000FF
:1017F00008B5144A0168144891420ED102680121CB
:1018000049040A4302600068002208400090114623
:101810001520FFF7E9FB152010E00C4A91420FD18B
:101820000268012189040A4302600068002208401E
:10183000009011461620FFF7D7FB1620FFF7C8FBD4
:1018400008BD000000440140401002400048014033
:101850007047000070B50446006801690025C9435F
:101860008907002915DBC168C943890711D4E91E1E
:10187000016101202077206880698007204602D01E
:10188000FFF7E6FF04E000F0A7F8204600F0A5F817
:10189000257720680169C943490717D4C168C9433E
:1018A000490713D40421C94301610220207720682D
:1018B00080698005800F204602D0FFF7C9FF04E051
:1018C00000F08AF8204600F088F825772068016942
:1018D000C943090716D4C168C943090712D40821AE
:1018E000C9430161042020772068C0698007204631
:1018F00002D0FFF7ADFF04E000F06EF8204600F0E4
:101900006CF8257720680169C943C90617D4C168F6
:10191000C943C90613D41021C943016108202077A7
:101920002068C0698005800F204602D0FFF790FF35
:1019300004E000F051F8204600F04FF825772068C9
:101940000169C943C90708D1C168C943C90704D19E
:10195000891E0161204600F041F820680169C943F1
:10196000090609D4C168C943090605D48021C943C1
:1019700001612046FFF713FF20680169C943C905CB
:1019800008D4C168C943090604D41249016120463C
:10199000FFF704FF20680169C943490609D4C168FB
:1019A000C943490605D44021C9430161204600F0DE
:1019B00016F820680169C943890609D4C168C9437A
:1019C000890605D42021C94301612046FFF7E8FEBE
:1019D00070BD0000FFFEFFFF704770477047704703
:1019E00010B5014680310A78012A15D001220A700B
:1019F00024224A6002681368146864086400146052
:101A000001225207934300224266006803602020AF
:101A100048600A70104610BD022010BD7047704724
:101A200070B5044605468034207801281AD001207C
:101A300020702420606028680668026852085200FE
:101A400002602868826807235B069A430A43826023
:101A5000284600F025FD28680660202060600020F0
:101A6000207070BD022070BD70B5044605468034FC
:101A70002078012819D00120207024206060286877
:101A80000668026852085200026028688268D20024
:101A9000D2080A438260284600F002FD28680660EA
:101AA000202060600020207070BD022070BD704753
:101AB00070477047F8B503680446D96918689A6892
:101AC000B24D0E462E4025468035002E75D0B04EC4
:101AD000B04F1640074037436ED0CF0706D0C7053A
:101AE00004D501271F62EB683B43EB608B0708D5E9
:101AF000D30706D0276802233B62EB6804273B43E9
:101B0000EB604B0708D5D30706D0276804233B6258
:101B1000EB6802273B43EB600B0709D5202303400A
:101B2000334305D0266808233362EE681E43EE6017
:101B30000B0509D5430107D501232668DB02336273
:101B4000EB6820263343EB60EB68002B42D089061C
:101B50000AD520210840C9050A40104304D0216F4E
:101B6000002901D020468847E8682168896849062D
:101B700002D42821084232D0204600F055FD2168C9
:101B80008868400627D5EFF31080012282F3108881
:101B90008B68402293438B6080F31088E06F0028AD
:101BA00019D07D498163E06FFFF7CAF8002811D092
:101BB000E06F816B0DE000E017E08E0615D5012780
:101BC00020263F07064017403E430ED0216FB1E06C
:101BD00020468847F8BD2046FFF76BFFF8BD20463A
:101BE000FFF767FF0020E860F8BDE66E012E7CD1AC
:101BF000CE067AD5C60678D510221A622368986870
:101C0000264640064036002847DAE16F08684068FB
:101C10000004000CE8D0B78B8742E5D9F083086850
:101C20000068800634D4EFF31080012181F310881E
:101C300019681701B943196080F31088EFF3108019
:101C4000012181F3108821688B685B085B008B6041
:101C500080F31088EFF31080012181F31088216850
:101C60008B684027BB438B6080F310882020A860DE
:101C70000020E066EFF31080012181F310882168D5
:101C80000B6893430B6080F31088E06FFFF71EF83A
:101C9000B08BF18B401A81B233E0B08BF18B401ADC
:101CA00081B2F08B00289FD000299DD0EFF31080E7
:101CB000012686F310881E68FF272137BE431E6069
:101CC00080F31088EFF31080012383F310882368DA
:101CD0009E682F4FFF433E409E6080F31088202077
:101CE000A8600020E066206700E00EE0EFF31080BF
:101CF000012383F3108823681D6895431D6080F3DA
:101D000010882046FFF78AFEF8BDCE0208D556029D
:101D100006D50120000518622046FFF7C9FEF8BD70
:101D20000E060BD501278026FF0506403A401643D4
:101D300004D0616F002900D04AE7F8BD4A0614D5E7
:101D4000420612D52046EFF31081012282F310885B
:101D50001C68402294431C6081F310882021696034
:101D60000021416700F04CF9F8BD0A0205D5420098
:101D700003D52046FFF79BFEF8BDC901FCD500281E
:101D8000FADA2046FFF74BFEF8BD00000F0800000E
:101D900001000010200100041526000870B50400A1
:101DA00005D0254680356868002802D006E001206D
:101DB00070BD00202870204600F026F824206860BE
:101DC00020680168490849000160204600F096FE3D
:101DD0000128EDD0A06A002802D0204600F082FB46
:101DE000206841680922D2029143416020688168DD
:101DF0002A22914381602068016801221143016019
:101E0000204600F0D5FB70BD10B58CB004461421FF
:101E10006846FEF7B2F9182105A8FEF7AEF91A498F
:101E2000206888422DD1012000240590069405A841
:101E3000FFF704F9002801D0FEF746FF13480268B7
:101E4000012189030A430260006808400B900F4893
:101E50004038426B02210A434263406B6A460840A5
:101E60000B90C02013C20394694609480494FEF7FE
:101E7000A5FF002211461B20FFF7B6F81B20FFF735
:101E8000A7F80CB010BD000000380140401002401F
:101E90000004005070B5034680339C68202C29D183
:101EA00000290BD0002A09D0012584682D03AC42FB
:101EB00006D10469002C03D1CC0701D0012070BDEC
:101EC0001C78012C16D001241C700023C366046802
:101ED00063681B020BD5EFF31083012585F310888F
:101EE00025680126B6063543256083F3108800F087
:101EF000B9FE70BD022070BD10B5084900680968C0
:101F000088420AD106484179064800F029FA044976
:101F10000122491D0148FFF7BDFF10BDA0080020A8
:101F200000000020FC060020FFB50646044680366F
:101F3000706883B00D46202860D1002D0CD0059824
:101F4000002809D00120A1680003814207D120693F
:101F5000002804D1E80702D0012007B0F0BD307896
:101F600001284BD0012030700020F06021207060EB
:101F7000FEF7D2FF0190274640370598B8820598B2
:101F8000F8820120A1680003814202D12069002863
:101F900004D0029500250020307015E0002002904A
:101FA000F9E700228021204600F0F6FE002818D133
:101FB0000298002817D02168007888620298401C97
:101FC0000290F88A401EF882F88A019B0028069841
:101FD0000090E6D100224021204600F0DDFE0028DE
:101FE00008D00320B9E728882168C005C00D8862A1
:101FF000AD1CE6E7202070600020AEE70220ACE7D1
:102000007047FEE770B583680022DB07DB0F02D064
:102010000122104670BD8C684B68C5682343CC68AC
:10202000054E35402C432343C360036909689B0078
:102030009B080B430361ECE7C73FFFFFF0B5C268A5
:1020400000230122C46852058468E407E40F02D02B
:1020500001231846F0BDC568104C154202D04D68EA
:10206000F02D08D08E680D680F693543CE683E4369
:1020700035434E6905E0CE680D684F6935430E69FA
:102080003E433543C66826403543C560C4681442A4
:10209000DFD04968826A0A438262DAE73CC2FEFF07
:1020A00010B543690424214007248C40A3438A408F
:1020B0001343436110BDF0B500244CE00123A3405D
:1020C0001A4047D04B68012B01D0022B0FD18E68EC
:1020D0008568134653435F00DF19BD4373431D43B7
:1020E0008560CB684568534395431D4345600F6940
:1020F000C668134653435D005D19AE435F433E43DC
:10210000C6604E68022E1FD1FF2A0ED817464A69B4
:10211000066A94461A467A437A431701BF1ABE43A9
:1021200067467A43164306620EE0160A3246724349
:102130004F6972437243BC461601B71A466ABE43E2
:1021400067467A43164346624A6806685343AE437D
:102150001E430660641C0A681346E340AED10020AB
:10216000F0BD000030B597B00024069407940894A1
:10217000182168460994FEF700F818210AA8FDF70F
:10218000FCFF182110A8FDF7F8FF01208003109034
:10219000149410A8FEF752FF002801D072B6FEE793
:1021A0003B480121026809050A43026000680840B3
:1021B0001690374801214038426B0A434263406B16
:1021C0000A910840169003200B9005200AA90E944E
:1021D0000007FFF770FF012080072E4D069007943F
:1021E000089406A909942846FFF70CFF0121E86826
:1021F000490588430843E86028688004C00FFBD085
:10220000012040032860F02000940190039404947E
:10221000694605942846FFF711FF286940084000E9
:102220002861286901214907884328610022114655
:102230002846FFF735FF002217492846FFF730FFF1
:10224000686804218843686068680821884368607A
:10225000A86812490840012109070843A8601148ED
:102260000F490068FDF746FF142148430A21FDF796
:1022700041FF00E0401E0028FCD1A86A00090001CF
:10228000A8626869FF2101318843686117B030BDD9
:10229000401002400024014004FFFF07E8FFFF7FD9
:1022A000400D03005400002010B518481649016085
:1022B000E1214902416000218160C16001618161C9
:1022C000C16101620C22416242618162FFF766FDD9
:1022D000002801D072B6FEE700210C48FFF7C4FBCE
:1022E000002801D072B6FEE700210848FFF798FBEE
:1022F000002801D072B6FEE70448FFF771FB002802
:1023000001D072B6FEE710BD00380140A0080020E1
:1023100010B500231A4602E0845C6340521C8A42D6
:10232000FADBD8B210BDFEE770470023038043807C
:102330008280816070470188428891420CD0428837
:102340008168895C4288521C4280428883889A4214
:1023500004D30022428001E00021C94308467047AF
:1023600010B502888388521C92B2934200D8002292
:1023700044880023944207D14288521C42804288FC
:102380008488A24200D34380048882681155018862
:10239000491C018001888288914200D3038010BDCE
:1023A000704710B5FEF7BEFD10BD10B592B03421D8
:1023B0006846FDF7E2FE002401200D940E940F9470
:1023C00040021094FEF714FE02200090C00103901A
:1023D00040200590049407946846FEF7DBFF002830
:1023E00001D072B6FEE707200D900E940F940021E5
:1023F00010940DA8FEF7C8FE002801D072B6FEE7C3
:1024000012B010BD7047000010B50248FFF722FA65
:1024100010BD00000808002010B50248FFF71AFAA6
:1024200010BD00005408002070B50268174B184E0C
:10243000984201D0B04203D17024A2434C68224399
:10244000144C154D984208D0B04206D0134EB042FD
:1024500003D0A04201D0A84204D103263602B243E1
:10246000CE6832438026B2434E69324302608A68A6
:10247000C2620A688262984203D0A04201D0A84298
:1024800001D1096901630121416170BD002C014046
:10249000000400400044014000480140002000408A
:1024A000F8B50446416E4034002915D000688168B3
:1024B000806809014D0F0A4E400F3746315C083FD6
:1024C000385CC000FDF716FE6085785D715DC00068
:1024D000FDF710FE2085F8BD01206085FAE70000B9
:1024E000043A000810B5018DC90707D001684A6891
:1024F00001235B049A43C36A1A434A60018D89072A
:1025000007D501684A6801231B049A43036B1A43E9
:102510004A60018D490707D501684A6801239B0479
:102520009A43436B1A434A60018D090707D5016836
:102530004A680123DB039A43836B1A434A60018D87
:10254000C90607D50268916801231B039943C36B31
:1025500019439160018D890607D501688A680123B6
:102560005B039A43036C1A438A60018D490612D5B6
:1025700003685A6801210905446C8A4322435A6062
:10258000426C8A4207D10268516803235B05994374
:10259000836C19435160018D090607D501684A68AB
:1025A0000123DB04C06C9A4302434A6010BD000063
:1025B000FEB50546002680350446EE60FEF7ACFC0D
:1025C000019020680068124F000709D5012100978B
:1025D000002249052046019B00F0DEFB00280DD1BA
:1025E0002068006840070BD501210097002289056B
:1025F0002046019B00F0D0FB002801D00320FEBD47
:1026000020206860A860E6662E700020FEBD0000F5
:10261000FFFFFF0110B5806A002201464031CA83E6
:10262000CA82FFF746FA10BD10B5EFF31081012200
:1026300082F3108802681368FF242134A3431360D7
:1026400081F31088EFF31081012282F31088026871
:1026500093680D4C2340936081F31088C16E01296B
:102660000BD1EFF31081012282F310880268136806
:102670001024A343136081F31088202288210A507C
:102680000021C166016710BDFEFFFFEF70B5014676
:102690004031034680330C8C9D680268222D04D0A3
:1026A000906908210843906170BD526A856D22408F
:1026B0002A80826D921C8265CA8B521ECA83CA8B85
:1026C000002AF1D1EFF31082012484F3108804680A
:1026D0002568FF262136B543256082F31088EFF385
:1026E0001082012484F310880468A5686D086D00C9
:1026F000A56082F3108820229A6000220267C36ED0
:10270000012B02D0FFF7F8FB70BDC266EFF3108219
:10271000012383F310880468256810239D432560F6
:1027200082F310880268D469E443E40600D413629B
:10273000898BFFF773F970BDF0B505460446403547
:1027400089B0288C02902168CE6908680690886854
:1027500004902046803000908068222805D08A6945
:10276000082002438A6109B0F0BD2F8D68E020681F
:10277000406A029AA16D10400880A06D801CA0657F
:10278000E88B401EE8832068C669710731D0F107E5
:1027900009D00699C90506D5012101620098C068D3
:1027A00008430099C860B0070BD50498C00708D04B
:1027B0002168022008620098C0680421084300993B
:1027C000C86070070BD50498C00708D021680420A2
:1027D00008620098C068022108430099C860009808
:1027E000C068002805D02046FFF763F90099002053
:1027F000C860E88B002823D1EFF31080012181F31A
:10280000108821680A68FF2301339A430A6080F325
:102810001088EFF31080012181F3108821688A6805
:10282000264B1A408A6080F310880098202181602E
:1028300000202067E16E012928D02046FFF75CFBCD
:10284000002F01D0B00692D4E88B00288BD0298DC0
:10285000814288D9EFF31080012181F3108821682B
:102860008A6801231B079A438A6080F31088144802
:10287000EFF310812067012080F310882068026840
:1028800020231A43026081F310886CE7E066EFF3BF
:102890001080012181F310882268136810218B4376
:1028A000136080F310882068C269D243D20600D436
:1028B0000162A98B2046FFF7B1F8C1E7FEFFFFEFE9
:1028C0008D26000870B501464031034680330C8CDC
:1028D0009D680268222D04D0906908210843906108
:1028E00070BD526A2240846D2270826D521C8265D6
:1028F000CA8B521ECA83CA8B002AF1D1EFF3108211
:10290000012484F3108804682568FF262136B54326
:10291000256082F31088EFF31082012484F310887D
:102920000468A5686D086D00A56082F310882022F8
:102930009A6000220267C36E012B02D0FFF7DCFA17
:1029400070BDC266EFF31082012383F31088046820
:10295000256810239D43256082F310880268D4699E
:10296000E443E40600D41362898BFFF757F870BD87
:10297000F0B505460446403589B0288C01902168A1
:10298000CE690868069088680490204680300290DE
:102990008068222805D0886908221043886109B020
:1029A000F0BD2F8D68E02068406A01990840A16D54
:1029B0000870A06D401CA065E88B401EE88320686D
:1029C000C669710731D0F10709D00699C90506D546
:1029D000012101620298C06808430299C860B007EB
:1029E0000BD50498C00708D021680220086202981D
:1029F000C068042108430299C86070070BD5049889
:102A0000C00708D02168042008620298C06802212B
:102A100008430299C8600298C068002805D0204683
:102A2000FFF747F802990020C860E88B002823D1FF
:102A3000EFF31080012181F3108821680A68FF23D9
:102A400001339A430A6080F31088EFF3108001216C
:102A500081F3108821688A68264B1A408A6080F3C7
:102A6000108802992020886000202067E16E0129EB
:102A700028D02046FFF740FA002F01D0B00692D4AC
:102A8000E88B00288BD0298D814288D9EFF3108004
:102A9000012181F3108821688A6801231B079A436A
:102AA0008A6080F3108814482067EFF310800121BA
:102AB00081F3108821680B68202213430B6080F398
:102AC00010886CE7E066EFF31080012181F3108835
:102AD0002268136810218B43136080F310882068EC
:102AE000C269D243D20600D40162A98B2046FEF708
:102AF00095FFC1E7FEFFFFEFC5280008F8B50446C3
:102B000080682169E26908436169002511432268F0
:102B1000084311684B4B194001431160206841681C
:102B2000032212039143E26811434160A169206AC4
:102B3000084321688A68444B1A4002438A6020682F
:102B4000C16A626A090909011143C1623F492068EB
:102B5000884211D13E4840698007800F0FD001287C
:102B600006D0022802D003280BD103E0022109E09D
:102B7000042107E0082105E03649884201D10021FF
:102B800000E010210120E369C003334A334E344F83
:102B9000834227D1002906D0022907D0042907D073
:102BA00008293FD108E0FEF79BFB03E0104603E055
:102BB000FEF7AAFB00283AD0616A4900715AFDF776
:102BC00099FA616840004A088018FDF793FA0146B7
:102BD0001039B94226D82249491C01400007400F4C
:102BE000084322E0002906D0022907D0042907D093
:102BF000082917D108E0FEF773FB03E0104603E055
:102C0000FEF782FB002812D0616A4900715AFDF775
:102C100071FA61684A088018FDF76CFA01461039AC
:102C2000B94201D9012502E080B22168C86020467E
:102C300001214030418501850020206760672846DA
:102C4000F8BD0000F369FFCFFFF4FF110038014029
:102C500040100240004400400024F400E439000821
:102C6000EFFF0000F0B58165014640318A83CA83D9
:102C700000230367012584682D03FF26AC4204D19D
:102C80000469002C13D13F4C0AE07F27002C09D0A7
:102C900001263607B4420CD10469002C05D03F242C
:102CA0000C8407E00469002C01D00F8402E00E843C
:102CB00000E00B8404468034E3602226A660EFF334
:102CC0001086B446012686F310880668B768B646B3
:102CD000012637437646B760664686F3108801279B
:102CE000466E7F07BE4229D1098D914226D8816860
:102CF000A94202D1016900291ED02349016723702E
:102D0000016900290CD0EFF31081012282F31088B1
:102D100002681368FF2401342343136081F3108891
:102D2000EFF31081012282F310880068826801238A
:102D30001B071A43826021E01449DFE78168A9423A
:102D400002D1016900290FD011490167237001697F
:102D50000029EFF3108109D0012282F31088006866
:102D60000268FF23213307E00A49EEE7012282F3DC
:102D700010880068026820231A43026081F31088DB
:102D80000020F0BDFF01000071290008392700086C
:102D9000C52800088D260008FFB581B005461746F6
:102DA000044680350A9E54E0701C52D0FEF7B4F8F9
:102DB0000499401AB0422FD8002E2DD02068016807
:102DC000490746D5C069C043000542D401202168A7
:102DD000C0020862EFF31080012181F3108821689E
:102DE0000B68FF22A13293430B6080F31088EFF34E
:102DF0001080012181F3108821688A6852085200EE
:102E00008A6080F3108820206860A860E860002055
:102E10002870032005B0F0BDEFF31080012181F38D
:102E2000108821680A68FF23A1339A430A6080F35F
:102E30001088EFF31080012181F3108821688A68DF
:102E4000520852008A6080F3108820206860A860D1
:102E5000DDE72068C1690298884304D00020B842A9
:102E6000A2D00020D6E70120F9E7000010B5024803
:102E7000FEF720FE10BD0000A00800200FB410B522
:102E800004A9074B02AA039800F0CCF8044602A953
:102E9000002000F001FB204610BC08BC04B018471D
:102EA000993400082021020C01D010211046020A9A
:102EB00001D010460839020901D01046091F8208C6
:102EC00001D01046891E420801D0881E7047081A9A
:102ED000704700008307FF22DB0E9A408907090E26
:102EE0009940002808DB830809489B001B181868D4
:102EF00090430843186070470007000F08388308A4
:102F000004489B001B18D86990430843D861704758
:102F100000E400E000ED00E00048704758000020A9
:102F2000F8B504464F1EC8000838211815461E463D
:102F3000086849683A4606239A4310D02A46334621
:102F4000FDF7FEF93A46D200083AA3181A687F1E28
:102F50005B68FDF741F906223B469343EED1022F11
:102F600023D0042F11D0062F2FD12A463346FDF748
:102F7000E7F9E36AA26AFDF72FF92A463346FDF71F
:102F8000DFF9636A226AFDF727F92A463346FDF71F
:102F9000D7F9E369A269FDF71FF92A463346FDF721
:102FA000CFF963692269FDF717F92A463346FDF721
:102FB000C7F9E368A268FDF70FF92A463346FDF723
:102FC000BFF963682268FDF707F9F8BD002210B564
:102FD000134610460149FDF71BFA10BD0000F03FF3
:102FE00010B50122FDF7E1FB10BD002210B513461C
:102FF00010461146FDF70CFA10BD02E008C8121F7A
:1030000008C1002AFAD170477047002001E001C1D1
:10301000121F002AFBD17047014908607047000069
:1030200058000020FFB591B00F460546002606E087
:1030300025280AD0149A139990476D1C761C28787D
:103040000028F5D1304615B0F0BD002400940121D0
:10305000F34A029400E004436D1C2B780846203BA1
:1030600098401042F7D128782A280ED002222878DA
:1030700001463039092915D800990A2359433039B6
:10308000401814436D1C0090F1E701CF0090002818
:1030900005DA0120400304430098404200900220DA
:1030A00004436D1C28782E2815D104200443687829
:1030B0006D1C2A280AD101CF6D1C02900BE00299E9
:1030C0000A225143303940186D1C0290287801467D
:1030D00030390929F3D928786C2810D006DC4C281F
:1030E0001AD068280ED06A2817D104E0742813D0AB
:1030F0007A2812D110E00120400504430CE00121A0
:10310000090501E0032109050C436978814203D1D7
:103110000120000524186D1C6D1C28786E281ED017
:103120000CDC632831D004DC00288BD0582811D166
:10313000B2E064287BD069280CD178E073282DD0C8
:1031400004DC6F2870D0702804D1A7E075286CD0FB
:1031500078286BD0149A13999047761C62E060022D
:10316000400F022807D003280AD0042838680AD064
:1031700006603F1D56E03868F11706604160F8E7C9
:1031800038680680F5E70670F3E738786946087412
:103190000020487404A80390012003E038680390DD
:1031A0000020C0433F1D61070FD5002101E00199B8
:1031B000491C029A0191914213DA8142F7DB019A8C
:1031C0000399895C0029F2D10BE0002101E001990B
:1031D000491C01918142FADB019A0399895C00291B
:1031E000F5D101990098139A401A00902146149B3A
:1031F00000F03CF901998019461807E003980399FB
:103200000078491C0391149A139990470198401E25
:103210000190401CF2D12146149B139A009800F0B3
:1032200015F986196D1C0AE741E033E034E00A2005
:103230000021049005916002410F022905D001CFC1
:10324000C2179446032905D007E0FF1DFF08FF00C1
:1032500003CF06E000B2C2179446042902D140B25F
:10326000C1178C4600226146944506DA0A460021C1
:10327000404291418C462D2102E0210504D52B21AD
:103280006A461176012103E0E10701D02021F7E72A
:10329000019155E00A200BE0102009E01020049075
:1032A00000210420044308200591029003E0082037
:1032B0000021059104906002410F022905D001CF41
:1032C00000229446032906D006E0FF1DFF08FF00F8
:1032D00003CF8C4603E080B2042900D1C0B20021A4
:1032E000019121072CD529780391702906D0049AE1
:1032F0001021059B4A401A4305D00EE040216A4642
:103300001176012108E06146014306D030216A466A
:1033100011760399517602210191049A0821059BA7
:103320004A401A430CD16146014301D1610707D5D8
:1033300030216A461176012101910299491E0291BC
:103340002978582904D037A103910FA90F910DE0D6
:1033500039A1F9E76146059B049AFDF72BF9039B18
:103360008C469B5C0F9A521E0F921370614601436C
:10337000F0D10F9807A9081A20300390600704D5F0
:10338000012000048443029801E001200290039987
:10339000884201DD401A00E00020411802900198A7
:1033A00009180098401A0090E00306D42146149BA7
:1033B000139A009800F05AF886190020049008E04B
:1033C00006A9085C149A139990470498401C761C2F
:1033D000049001998842F3DBE0030CD52146149B4D
:1033E000139A009800F042F8861904E0149A3020ED
:1033F00013999047761C0299481E02900029F5DC2B
:1034000008E00F980F990078491C0F91149A1399AE
:103410009047761C0399481E03900029F1DCFAE6D8
:10342000092801003031323334353637383961629A
:10343000636465660000000030313233343536375E
:10344000383941424344454600000000F8B504467F
:1034500000251E461746880404D405E0394620207E
:10346000B0476D1C641EF9D52846F8BDFFB504466B
:10347000002581B01E46C80301D5302700E0202773
:10348000880404D505E038460399B0476D1C641ED6
:10349000F9D5284605B0F0BD0A68531C0B601070C2
:1034A00070470000F0B5C54A00248FB091420ADA97
:1034B0004B005B08934206D801254A006D05EA429D
:1034C00005D1002803D0FFF78BFD0FB0F0BD01251B
:1034D0002D05A94219DA034308D0002910DA01208A
:1034E000FFF79AFDFFF781FD0FB0F0BD0220FFF757
:1034F00093FDFFF76BFD0122D20751400FB0F0BDE5
:103500003524E4433622FDF750F90A15AC4B121965
:10351000D4180A03120BAB49AB4B56182E40314658
:10352000594011430192321512190B920022FCF7F7
:10353000F8FE019A0446921C1003A44E000B0D469F
:103540007E44032860D2204673683268FDF70AF88B
:103550001CD10B98002815D0FDF73EF904460E4605
:103560009B4A9C4BFCF7ECFE0D4607469A4A9B4B48
:1035700020463146FCF7E4FE3A462B46FCF72CFE8B
:103580000FB0F0BD716830680FB0F0BD944A954B34
:1035900020462946FCF7D4FE0022934BFCF7C7FED9
:1035A00006460F4622462B4610461946FCF7C8FE33
:1035B00032463B46FCF7C4FE06460B980F460028F1
:1035C0001DD0FDF709F9824A824B05910490FCF762
:1035D000B7FE32463B46FCF7AAFE22462B46FCF7D6
:1035E000A0FE04460D467C4A7C4B05990498FCF7E6
:1035F000A7FE22462B46FCF794FE0FB0F0BD0B460B
:10360000324620462946C4E0012300229B0720467B
:10361000FCF7E2FD02460B4620462946FCF7F8FE81
:1036200006460F460B98FDF7D7F832463B46059104
:10363000049010461946FCF783FE09910C906B49E3
:103640000198099B421800920C9A19461046FCF703
:1036500077FE024607910A90654901980B1A654862
:10366000019303217844079BFFF75AFC079B0A9AB2
:10367000FCF766FE0E905F480D9104217844079B8D
:103680000A9AFFF74DFC099B0C9AFCF759FE019B27
:10369000009A1A4300920D9B0E9AFCF79DFD009A2A
:1036A00001910C90002A4DDD0022D243204629468C
:1036B000FDF77BF822462B46FCF742FE00910A906C
:1036C0000B9800282BD0424A424B05990498FCF7EE
:1036D00037FE07910E90019B0C9A00990A98FCF70F
:1036E0007BFD32463B46FCF72BFE079B0E9AFCF710
:1036F00073FD009B0A9AFCF71AFE22462B46FCF744
:1037000010FE04460D46344A344B05990498FCF7E4
:1037100017FE22462B46FCF704FE0FB0F0BD019BBE
:103720000C9A0A98FCF758FD32463B46FCF708FE17
:10373000009B0A9AFCF7FBFD22462B46FCF7F7FD9F
:103740000FB0F0BD0B98002827D0214A214B0599D6
:103750000498FCF7F5FD0791009020462946019B4F
:103760000C9AFCF7DEFD32463B46FCF7E9FD079B71
:10377000009AFCF7D6FD22462B46FCF7D2FD044604
:103780000D46154A154B05990498FCF7D9FD2246BC
:103790002B46FCF7C6FD0FB0F0BD0B462046294670
:1037A0000C9AFCF7BEFD32463B46FCF7C9FD2246AB
:1037B0002B46FCF7BCFD0FB0F0BD00000000F07F11
:1037C00001FCFFFF645F09000000F03F640500009A
:1037D000763C7935EF39EA3D0000E0FE422EE63FC7
:1037E000555555555555D53F0000E03F86EBF9FF3F
:1037F00051B806000804000008B5FDF79BFBFEF772
:10380000D4FD2748426B02210A434263426B0A40BF
:103810000092416B012211434163406B21491040EA
:1038200000902148002412C0046084601F4DC460D1
:10383000456004610838FDF7B4FF002801D072B676
:10384000FEE719481A494C3012C004608460C46015
:10385000456004610838FDF7A4FF002801D072B666
:10386000FEE7FEF77FFCFEF71FFD1249FF22084628
:1038700001320C38FEF759FD0B4801220E499830F1
:10388000FEF708FB0D4988680D4A1040401C88600F
:103890000C4C204600F018F8FDF744F8F9E700005A
:1038A000001002400044014008080020FFFF000013
:1038B00000480140080700200500002000240140C6
:1038C000E8FFFF7F6E0F0000F1B582B0384C00209A
:1038D000FDF714F8FDF71EF8FDF70AF8FCF710FEE7
:1038E000354F344A3B46FCF72BFD0022334BFCF7A7
:1038F0008FFDE16205460E46A0622A4633462D48FA
:103900003946FCF70EFD0746009100222C4B284655
:103910003146FCF715FD3A46009BFCF779FD6164E2
:103920002064064600910298FCF7EAFD05460F4622
:103930000022234B30460099FCF76AFDFFF7B2FDE9
:103940002A463B46FCF764FD1E4A1F4BFCF744FC2D
:1039500002460B4600201D49FCF75AFD6163154ADB
:103960001B4B2063FCF7DDFC00221A4BFCF7E8FC44
:10397000E16305460E46A063FCF7D0FD6178164B67
:103980008A009850491C61700022144B2846314629
:10399000FCF7E8FD06D30022114BE16BA06BFCF7AE
:1039A000F5FD01D2002001E0E068401CE060FEBDB2
:1039B000000000206666666666660A4000FEAF404C
:1039C0000088C34083DBB5DCE1796B3F0000F03F4A
:1039D00066127140000024405C01002000C072C0EB
:1039E00000408F40010002000400060008000A00A9
:1039F0000C001000200040008000000101010103C4
:103A00000701000008040204080101010000000091
:103A100000000000000000000000000000000000A6
:103A20000000000000000000000000000100000095
:103A30000200000003000000040000000600000077
:103A4000070000000800000009000000000000005E
:103A50000000000000000000000000000100000065
:103A6000020000000300000004000000000000004D
:103A700004FA97999999D93FAF788E1DC571CC3FBB
:103A80009FC678D0099AC33F935555555555E53F84
:103A9000599322942449D23FDE03CB966446C73F14
:103AA00044523EDF12F1C23F00000000000000005F
:103AB0000040404040404040404041414141414041
:103AC00040404040404040404040404040404040F6
:103AD0004005020202020202020202020202020285
:103AE000022020202020202020202002020202028A
:103AF00002029090909090901010101010101010E2
:103B000010101010101010101010101002020202ED
:103B10000202888888888888080808080808080831
:103B2000080808080808080808080808020202022D
:103B300040000000B13A0008583B00080000002097
:103B40005C000000FA2F0008B43B00085C00002075
:103B5000D40C00000A300008000000000000000043
:103B60000000000000000000000000000000000055
:103B70000000000000000000000000000000000045
:103B80000000000000000000000000000000000035
:103B90000000000000000000000000000000000025
:103BA0000100000004000000000000000024F400F8
:043BB0000000000011
:04000005080000C12E
:00000001FF
