:020000040800F2
:10000000800D0020D5000008EF240008BF23000861
:1000100000000000000000000000000000000000E0
:10002000000000000000000000000000692500083A
:100030000000000000000000F12400086B2500080B
:10004000E700000800000000E7000008E7000008E3
:10005000E7000008E7000008E7000008E7000008E4
:1000600000000000E7000008E7000008E7000008C3
:10007000E9080008E7000008E700000800000000A9
:10008000E70000080000000000000000E700000892
:1000900000000000D5250008E5250008E70000085D
:1000A000E7000008E7000008E7000008E700000894
:1000B000512A0008000000000000000000000000BD
:1000C0000348854600F098FB004800479532000839
:1000D000800D00200448804704480047FEE7FEE703
:1000E000FEE7FEE7FEE7FEE7D3250008C1000008B3
:1000F00030B50B46014600202022012409E00D46C0
:10010000D5409D4205D31D469540491B2546954047
:1001100040191546521E002DF1DC30BD70B500248B
:100120002546002801DA01244042002901DA012590
:100130004942FFF7DDFFAC4200D04042002C00D026
:10014000494270BD03460B439B0703D009E008C931
:10015000121F08C0042AFAD203E00B780370401C77
:10016000491C521EF9D27047D2B201E00270401C05
:10017000491EFBD270470022F6E710B513460A4627
:1001800004461946FFF7F0FF204610BD421C0178D7
:10019000401C0029FBD1801A704730B5054600206D
:1001A000034600E05B1C934205D2EC5CC85C201A5D
:1001B00001D1002CF6D130BD70B5064602F0BCFC72
:1001C000046805460A220021304600F053FA2C60EC
:1001D00070BD0000F0B507460846584087B0C00F14
:1001E000049048000E46590040084908BC1A88414E
:1001F00005D2384631461E4617460B460246580081
:10020000400810434CD0300D039040055900400D7C
:10021000490D0590401A0290402872DA1803012116
:10022000000B09050843019004980092002805D0AE
:100230000199524200208841009201900298402189
:100240000A1A0199009800F0E1F905460C466B4640
:1002500007CB00F0FCF9C0197141039A0E0D002381
:10026000D71756401A467A40164344D0049A002ABB
:100270002DD0029A012A039A15DC1205C01A914169
:1002800001263605001C7141D20F059ED20700934E
:10029000019202962A46234600F031FA07B0F0BDDB
:1002A00038463146FAE71605224A0F46B218C01AF8
:1002B000B74101210905001C4F4100187F4111463B
:1002C00018187941E20F10436D19644113E0E207F9
:1002D0006D0815436408C2071443039A01261205EA
:1002E000C01A91413605001C7141CE0740083043C9
:1002F0004908C01851412A46234600F0F3F9CDE7DA
:10030000FFE7049801224000C117121A00238B4115
:1003100004983146C417381AA141EEE730B40124DD
:10032000E407634030BC55E730B40124E407614082
:1003300030BC4FE70000E0FFF0B51FB488B00B9968
:100340000998002448400999C00F490049080991BB
:10035000C0070B990090490049080B91099908982A
:10036000A64608431CD00B990A98084318D0099850
:1003700001244000420D4800410D09982405000366
:10038000000B204309900B980003000B20430B90B7
:1003900050181C494018002201901446104605E0F0
:1003A000002001460DB0F0BD032801DA034600E04D
:1003B00003239C46C11A0AAE0AE05F0008ADED5B5C
:1003C0004F00F75B7D430027AA187C41491C5B1E48
:1003D0006145F2DD410004AB5A522104120C0A437C
:1003E000240C401C0828DFDB01980290009970461D
:1003F00001910090059B049A0799069800F07FF9F7
:10040000D0E700000DFCFFFFF0B50C465C4085B066
:10041000E40FE40703944C00002664085900944656
:10042000490802460296224321D062460A431ED062
:100430006200570D4A000E032303550D01240246A6
:100440002C492405781B1B0B360B401823432643ED
:10045000614600901C46501AB44103D30098401CDA
:10046000009002E0921800985B41002803DA002017
:10047000014605B0F0BD002001210905074686466A
:1004800011E064461D46141BB54106D36546521B58
:10049000B341744607430C43A646CD0740084908BC
:1004A000284392185B4105460D43EAD11046184394
:1004B00013D06046194650407140084306D060464C
:1004C000101AB34106D20122002306E000220123C4
:1004D000DB0702E00122D243531000987446010565
:1004E000381C6141029C039D0019694100F0FAF833
:1004F000BFE70000FD0300000EB505490291002191
:1005000000910A460B46019100F0F9F803B000BDD6
:100510003304000070B5CD0F4A0009030123090B15
:100520001B0519430B4BED070024520D9A4201DACB
:10053000002070BD074B34339A4203DC9A1A00F056
:1005400075F802E00449511888402C43F1D040422C
:1005500070BD0000FF030000CDFBFFFF10B50029B8
:1005600004DB0124E40740428C412146002B04DBDC
:100570001C460123DB075242A3418B4200D1824239
:1005800010BD000010B5002904DB0124E40740423F
:100590008C412146002B04DB1C460123DB07524221
:1005A000A341994200D1904210BD0000F0B51FB4A4
:1005B0000646002082B005464024019100901BE0D1
:1005C000019922460F46304600F030F8049A059B08
:1005D000801A994110D310461946224600F016F8A9
:1005E000361A8F410197224601200021009F00F01A
:1005F0000DF838184D4100902046641E0028DFDCBD
:10060000019B00982946324607B0F0BD10B5202A5C
:1006100004DB0146203A9140002010BD9140202388
:100620009C1A0346E3401943904010BD10B5202AA0
:1006300004DB0846203AD040002110BD0B46D340D1
:10064000D0402024A21A91400843194610BD10B58D
:10065000202A06DBCB170846203A1041C1170B436E
:1006600006E00B461341D0402024A21A91400843D3
:10067000194610BDF7B5009C0F4600262578641C6E
:10068000002D05D000F0CAF80068405DC007F5D124
:100690002B2D02D02D2D18D0641E39462046029AEB
:1006A00000F0C0F8002F04D03968A14201D10099B0
:1006B00039607105022400290BDA4042002803DD6D
:1006C00002F03AFA0460A007FEBD01208002064352
:1006D000E3E70028F8DA02F02FFA04600048FEBDD4
:1006E000FFFFFF7F10B5002B08DA0024401C61419A
:1006F00092185B411A4301D14008400010BDF0B58B
:100700001FB482B005460C0003D0084602F0DAF9A7
:1007100002E002F0D7F92030024600902146284638
:10072000FFF774FF049B059A04460F4618431143D4
:10073000084314D0184610431BD0009840210A1AD1
:1007400018460599FFF772FF05460E46009A05996F
:100750000498FFF75BFF084305D0012004E0204622
:10076000394607B0F0BD0020C11705430E432C43A6
:10077000374300990E986305401A7905E40A002270
:100780000C43FD0A0A3002D500200146E9E70105C5
:10079000101969410C9C0D9D00196941FFF7A2FFDA
:1007A000DFE770B54B005B0803430BD04B005C0DDB
:1007B000002633466542B341D417AD1AA34102DB8C
:1007C0000020014670BD12053018514170BD000077
:1007D0000EB5C217C10F5040CA0740180021054B83
:1007E0000293019200910A460B46FFF788FF03B07F
:1007F00000BD000033040000064C0125064E05E054
:10080000E36807CC2B430C3C98471034B442F7D331
:10081000FFF75AFC90360008B036000800487047D1
:1008200034360008F7B582B0029C00272078641C9B
:1008300015460197302802D0002D15D015E02078FC
:100840000127641C782804D0582802D0002D09D034
:100850000BE0002D01D0102D07D1002710252078A6
:10086000641C02E0082500E00A250026009610E03E
:100870000099012769430818020C294680B2714388
:1008800000908E183804864201D301200190207810
:10089000641C294600F019F80028E9DA03980028BA
:1008A00005D0002F01D0641E00E0029C0460019876
:1008B000002806D002F040F902210160C81E05B0F0
:1008C000F0BD009930040843F9E73A2800D23038E7
:1008D000202302469A43412A01D3104637388842E2
:1008E00001D30020C043704710B5024800F0A6FABB
:1008F00010BD0000E00700200148006880B270478A
:100900004024014005498A6804231A438A608A6AA0
:10091000012383401A438A6270470000002401408B
:10092000024801684907FCD57047000000240140D7
:10093000F8B5934D934C944FB1E0934801F0DFFD2F
:100940002178924E7218491C217010702328F3D11F
:1009500004228FA13046FFF720FC002804D1304646
:10096000FFF714FC052807D0042289A18748FFF768
:1009700014FC002818D077E087A002F07FF8012649
:10098000667100202081A07030468200AA58A96AB2
:10099000401C8918A9620A28F7DB08460A21FFF7DC
:1009A000BDFB2860E6705FE07848FFF7EFFB0528A5
:1009B0005AD9012060717548FFF7E8FBC2B2009276
:1009C000311D7848521FFFF7BDFB009A0020521FCF
:1009D00019E07449095C302914D0312912D0322928
:1009E00010D033290ED034290CD035290AD036291D
:1009F00008D0372906D0382904D0392902D02179E6
:100A0000491C2171401C9042E3DB2079002808D06A
:100A100000996448491FFFF7AEFB0120E0700020F9
:100A200020716048FFF7C8FB208100995D48491F8D
:100A3000FFF7A1FB2189002904D00120A07060707C
:100A40008A0008E00020A0700EE08600AB58AE5986
:100A50009B19AB50401C8842F7DB88002858FFF7F1
:100A60005DFB28600220E070042249A14748FFF79F
:100A700094FB00280DD00020607147A001F0FEFF1C
:100A8000BFF34F8F49494848C860BFF34F8F00BF3D
:100A9000FDE7FF213D48FFF76EFB002020707988BD
:100AA0003888814200D048E77D21C900E0684E1EA9
:100AB000884245D9E078012823D0022820D100F0CF
:100AC000F5FCA1693246411A20895043814217D969
:100AD0002D4837A120382A6801F0E0FF2A48203845
:100AE000FFF754FB01462848203801F0F5FCA071BF
:100AF000024634A0296801F0C1FF00F0D7FCA061D4
:100B0000F8BD00F0D3FC6169401AB042F8D91E4824
:100B100027A120382A6801F0C1FF1B482038FFF7C1
:100B200035FB01461848203801F0D6FCA07102467A
:100B300024A0296801F0A2FF00F0B8FC6061F8BDB4
:100B40000028FCD100F0B2FCE169401AB042F6D9AD
:100B50000D4822A1203801F0A1FF0B482038FFF7F3
:100B600015FB01460848203801F0B6FCA07101468B
:100B70001FA001F083FF00F099FCE061F8BD0000C8
:100B8000B401002000000020D4060020B4000020A2
:100B900070696E6700000000234F4B2C30420D0A35
:100BA00000000000B40500200400FA0500ED00E09C
:100BB0002354656D70657261747572652C25642CA3
:100BC000000000002354656D706572617475726574
:100BD0002C25642C25580D0A000000002354656D57
:100BE00070657261747572652C33323736372C003C
:100BF0002354656D70657261747572652C3332377C
:100C000036372C25580D0A0072B6FEE7704770473C
:100C100070477047F8B500270646044640360097EF
:100C2000307D0D4601280FD001203075206801F07D
:100C3000CBFB00280AD0A06D20210843A065012726
:100C4000002030753846F8BD0220F8BD68680228DB
:100C50007ED001222169D207914202D0121D914219
:100C600006D120682968826A4903490B0A436EE06D
:100C7000C206D20E0F20216E9040814328684303A4
:100C800002D0C3074BD102E04000C00E48E083070A
:100C900001D5012044E0430701D5022040E00307CD
:100CA00001D503203CE0C30601D5042038E08306CB
:100CB00001D5052034E0430601D5062030E00306C7
:100CC00001D507202CE0C30501D5082028E08305C5
:100CD00001D5092024E0430501D50A2020E00305C1
:100CE00001D50B201CE0C30401D50C2018E08304BF
:100CF00001D50D2014E0430401D50E2010E00304BB
:100D000001D50F200CE0C30301D5102008E08303B8
:100D100001D5112004E0400301D5122000E000209D
:100D20009040014321666968E2698808401C90424E
:100D300010D820682B68826A9C46C906C90E0F230A
:100D40008B409A4363469B001B0F8B401A4300E085
:100D50003BE082622168AB6828684A6900028243EE
:100D600018404001400902434A612868002800DB1E
:100D700066E72B4A116807239B051940294B9842C7
:100D800014D10B0212D4C0020143104601F028FB1B
:100D9000264825490068FFF7ABF90C21401C484361
:100DA00000E0401E00900028FBD149E7204B98420C
:100DB00003D1CB0101D4800205E01E4B9842D7D16C
:100DC0004802D5D45802014325E001212069C90712
:100DD000884202D0091D884206D120682968826AAB
:100DE0004903490B8A43826228680028C0DA0C4A0A
:100DF000116807239B0519400A4B984201D1C00294
:100E000008E00B4B984201D1800203E0094B984265
:100E1000AED140028143104601F0E2FA10E7000033
:100E200008270140001000B0400D0300A80000207A
:100E3000004000B8002000B470477047F8B5044681
:100E4000006806684568B0070FD5A8070DD5A06DE6
:100E5000C00604D4A06D0121C9020843A065204644
:100E6000FFF7D5FE216802200860474F700701D5C3
:100E7000680703D4300728D5280726D5A06DC006FB
:100E800004D4A06D012149020843A065206801F047
:100E90009FFA002813D0A07E002810D12068016896
:100EA00009070CD501F090FA01460120002960D015
:100EB000A16D20221143A165E16D0143E16520464A
:100EC000FFF7BAFF21680C20086030060CD5280611
:100ED0000AD5A06D012109040843A065204600F051
:100EE00065F9216880200860F0050BD5E80509D573
:100EF000A06D012149040843A0652046FFF788FE44
:100F000020680760B0050DD5A8050BD5A06D01219F
:100F100089040843A0652046FFF77BFE0120216875
:100F200040020860F00618D5E80616D5206B0028A8
:100F300004D02068C0688007800F0BD0A06D01210D
:100F400089020843A065E06D02210843E065204660
:100F5000FFF773FF216810200860B00408D5A804CB
:100F600006D52046FFF752FE0120216840030860A5
:100F7000F8BD21684A680C239A434A60A16DB943C1
:100F80000143A1659BE7000000010000FEB50027BA
:100F9000044601973E4602970097002805D0254653
:100FA000A06D2035002802D007E00120FEBD2046BC
:100FB00000F0FEF8E6655420065520688168C900F7
:100FC000C90F12D18168724A1140012212071143E0
:100FD000816071486F490068FFF78AF84000801C03
:100FE00000E0401E00900028FBD120688168C90005
:100FF000C90F08D1A16D10221143A165E16D012235
:101000001143E165174601F0DFF9A16DC90601D46E
:10101000002804D0A06D10210843A065B4E0A06DA5
:10102000FF210131884302210843A065206801F0B7
:10103000C7F900286DD1217EA06889030843617E2D
:10104000CA03A17E4B031A431043226B002A01D02E
:10105000012212031043E26810432269002A02DAD7
:101060005200520801E00122520510432A7B52002F
:101070001043019A10432A78012A09D1002922D06D
:10108000A16D20221143A165E16D01221143E165AB
:10109000616A002906D0FF23C1331940A26A0143C7
:1010A000104608432168CA683C4B1A400243CA6094
:1010B0006168029A890F8907E06C0A4310432A7F0E
:1010C000012A04D00CE0012109040843E0E7636C25
:1010D000226C491C1A43A36C0B4311461943084365
:1010E00021680A692E4B1A4002430A610321606895
:1010F000890788420DD0590788420AD049008842A2
:1011000007D0284A91680F239B0499431840014354
:1011100091600021626B206801F069F92249A26B9D
:10112000206801F064F90F202169C04300291CD018
:101130000122520591420AD121688A6A227F9200D7
:10114000121FD206D20E9040226E10438862206891
:101150004069616B4007400F88420BD1E665A06D86
:1011600080088000401CA0650FE021688A6A024365
:101170008A62ECE7A06D0221884310210843A06534
:10118000E06D01210843E06501273846FEBD0000FF
:10119000E8FFFF7F400D0300A80000200102FEFFD2
:1011A00002FCFF1F0027014004FFFF0770470000FB
:1011B00010B58CB0044614216846FEF7DCFF1821F8
:1011C00005A8FEF7D8FF1A49206888422ED10120D1
:1011D000800300240590099405A800F037FA002840
:1011E00001D0FFF711FD13480268012109050A43E8
:1011F0000260006808400B900E484038426B0221A4
:101200000A434263406B029408400B908020009098
:10121000032001906946084800F09AF80022114620
:101220000C2000F0E9F90C2000F0DAF90CB010BD48
:10123000002401404010024000040050F0B5002896
:1012400008D0014620314A79022A05D00422C2631F
:10125000002008710120F0BD026813680E24A3432A
:101260001360426C1468FF2301339C4314600268CE
:1012700014686408640014600C4A5568066C1C24E9
:10128000264001242746B7403D435560826CC56C1B
:101290005560026D002A05D015689D431560826D6A
:1012A000406D42604C7100200871F0BD00000240AA
:1012B000F8B50024024620325179022903D00421D6
:1012C000C16301242DE001680B680E25AB430B6060
:1012D00001680B685B085B000B60416C0B68FF25C5
:1012E0000135AB430B6010494D68066C1C231E4052
:1012F00001231F46B7403D434D60816CC56C4D6076
:10130000016D002906D00E681D02AE430E60416DCE
:10131000856D4D60537100211171816B002900D0E2
:1013200088472046F8BD00000000024070B5044622
:1013300000F0BCF80546601C02D004480078241870
:1013400000F0B4F8401BA042FAD370BD9C0000200E
:10135000F0B5002303249AE02A4601259D402A4047
:101360007ED00E79B607B60F012E01D0022E16D10F
:1013700086682746B4465E00B646B7406646BE431A
:10138000B446CF687646B7406646374387604668BE
:10139000AE430D79ED06ED0F9D40354345600D7967
:1013A000ED43AD0708D0C5685F002646BE40B54393
:1013B0008E68BE402E43C6600D79AD07AD0F022D7D
:1013C0000ED1DD08AD002D18AC462D6A5E07F60E75
:1013D0000F27B740BD430F69B7402F4365462F62C3
:1013E00005685F002646BE40B5430E79B607B60FC6
:1013F000BE402E4306604D68AD03AD0F46D09E083B
:10140000264DB6007519AC462D6E9E07F60E0F27B9
:10141000B740BD4305273F07B84201D100270FE081
:101420001F4FB84201D101270AE01E4FB84201D137
:10143000022705E01C4FB84201D1032700E0052731
:10144000B7402F43154D664637662D684E68954365
:10145000F60200D51543114F3D607D68954300E0CD
:1014600014E04E68B60200D515437D600B4D803503
:101470006E684F689643BF0300D516436E602E68B2
:101480004F689643FF0300D516432E605B1C0A6825
:101490001546DA4000D05FE7F0BD000000180240BA
:1014A0000004005000080050000C00500148806803
:1014B000704700009C00002070B504000FD0216828
:1014C0001548086021681548086003CC4160206811
:1014D000083C21688860FFF7E9FF05460CE0012021
:1014E00070BDFFF7E3FF401B312805D92068C068B5
:1014F000400701D0032070BD2068C0684007F0D1CC
:1015000020680269E1688A4201D0016101E0044972
:101510000160002070BD0000CCCC000055550000DB
:10152000AAAA00000068024901600020704700007C
:10153000AAAA000002488168027889188160704771
:101540009C00002010B50848002401688215114352
:101550000160032000F00AF8002801D0012401E016
:1015600000F028F8204610BD0020024070B50F4E54
:10157000002431780546002915D07D20C000FEF7F3
:10158000B7FD01460A480068FEF7B2FD00F0F6FB21
:10159000002808D1042D06D200222946401E00F062
:1015A0002BF8756000E00124204670BD9C000020EF
:1015B000A800002008B50948016801221143016014
:1015C00000681040009005484038C26B01040A438F
:1015D000C263C06B0840009008BD0000401002408C
:1015E000002805DBC106C90E0120884001490860BA
:1015F0007047000000E100E010B501F07BFA10BD7B
:1016000010B50F4C2168032252029143014321601F
:10161000C11FFF39FA390ED10A4806210068484334
:101620000949FEF765FD401C02E0002805D0401E78
:1016300061694905F9D4002010BD032010BD0000E8
:1016400000700040A800002040420F00F8B504469A
:10165000006800264D4D800358D54C48002740387F
:10166000C06BC00009D449484038C26B01040A432A
:10167000C263C06B0840012700904548016882158D
:1016800011430160FFF712FF009005E0FFF70EFF26
:101690000099401A022825D83D480068C005F5D5B4
:1016A000E8690321090208400FD0616981420CD02A
:1016B000E86903210902EA698843012109040A4310
:1016C000EA61EA698A43EA61E861C0070FD0FFF77F
:1016D000EDFE009008E0FFF7E9FE0099411A2D4861
:1016E000814201D9032609E0E8698007F3D5E8695A
:1016F00003210902884361690843E861002F05D08E
:1017000022484038C26B01048A43C2632078C00774
:1017100005D06869616880088000084368612078A6
:10172000800606D56869032109038843A168084338
:1017300068612088400411D56869216980008008AB
:1017400008436861012120698907884206D10F4852
:101750004038C168012212041143C160208800058D
:1017600012D56869032189038843E16808436861E9
:101770000121E0688903884206D104484038C168E5
:10178000012212041143C1603046F8BD40100240EE
:101790000070004088130000F8B50F46060043D0E3
:1017A0004D4D28684007400FB84213D22868C00842
:1017B000C00038432860FFF779FE044605E0FFF7D4
:1017C00075FE011B4548814261D828684007400FDB
:1017D000B842F4D13068424C81070DD5400704D59A
:1017E000A068072109030843A060A0680F2109022F
:1017F0008843B1680843A0603078C00732D0706871
:1018000001280AD002280BD000280FD034494031DB
:1018100003280ED0C969890704E02168890301E023
:1018200021688901002906DB0120F8BD21684905EE
:10183000F8E7096AEFE7A168C908C9000143A16098
:10184000FFF734FE009006E0FFF730FE0099411AE2
:10185000224881421BD8A068382108407168C9001D
:101860008842F1D128684007400FB84217D91A487A
:101870000168C908C90039430160FFF717FE054632
:1018800007E0FFF713FE411B1448814201D90320F2
:10189000F8BD114800684007400FB842F1D13078D8
:1018A000400706D5A068072109038843F16808436B
:1018B000A06000F031F8A1683C2289091140094A72
:1018C000515CC906C90EC84007490860074800684E
:1018D000FFF74CFEF8BD0000002002408813000016
:1018E0000010024010350008A8000020A0000020D1
:1018F0000648074900688968064A4904490F890073
:10190000515CC906C90EC84070470000A8000020FD
:10191000001002405035000810B5204CA068204A45
:101920008006400F16D0A0688006410F5010012994
:101930000FD0A1688906490F022912D0A06880063D
:10194000400F042823D0A0688006400F032821D030
:10195000002010BD206801218004400F8140104606
:1019600012E0E1688B07E1689B0F4906490F491CAB
:10197000032B00D01046FEF7BBFBE1684904490E7B
:101980004843E168490F491CFEF7B2FB10BD012036
:10199000C00310BD7D20000210BD000000100240F9
:1019A0000024F400F8B504007ED020783827C00762
:1019B000E94D002846D0A868E96838408907890FB2
:1019C000102802D008280BD001E0032908D00120FC
:1019D0006268000482420AD129680143296015E047
:1019E000286880032ED560680028DDD02AE0052312
:1019F00001211B0489049A422A6802D10A432A6001
:101A0000EAE782432A6028688843286060680028E3
:101A10000CD0FFF74BFD064604E0FFF747FD801BA7
:101A2000642873D828688003F7D50BE0FFF73EFDE4
:101A3000064604E0FFF73AFD801B6428F1D82868C9
:101A40008003F7D42078800769D5A868E968384012
:101A50008A070721920FC902102802D0002813D04C
:101A600001E0022A10D0E068002846D028688843A8
:101A70002169084328602868FF2101310843286054
:101A8000FFF714FD06462CE02A68520502D5E268ED
:101A9000002A89D06A687F231B029A4363691B026C
:101AA0001A436A60002800E08DE00ED12868884360
:101AB000216908432860286801218004400F814083
:101AC000A648FEF715FBA6490860A6480068FFF780
:101AD0004DFD002877D122E0FFF7E8FC801B0228AB
:101AE0009FD828684005F7D568687F210902884398
:101AF000616909020843686011E02968FF2001302C
:101B000081432960FFF7D2FC064605E098E0FFF725
:101B1000CDFC801B022884D828684005F7D42078A3
:101B2000914E00072ED5A8688006400F03280AD0E2
:101B3000A0690028306A16D0012108433062FFF7FF
:101B4000B5FC07460BE0306A80071BD5A06900286A
:101B50009FD017E0FFF7AAFCC01B022870D8306A9C
:101B60008007F7D50EE0400840003062FFF79EFC8A
:101B7000074604E0FFF79AFCC01B022860D8306AD1
:101B80008007F7D4207840076CD5A8680027800626
:101B9000400F042818D0E86BC00008D4E96B01207E
:101BA00000070143E963E96B0140012700916F4899
:101BB0000168C90519D40168821511430160FFF756
:101BC00075FC00900DE083E0F06980074AD5A068BD
:101BD00000287DD046E0FFF769FC0099401A0228F2
:101BE0002ED862480068C005F5D5A168012910D03B
:101BF00004200529F16911D049084900F161F16912
:101C00008143F161A068002816D0FFF74FFC0090D7
:101C10000EE0F06901210843F061F3E70143F1614F
:101C2000F7E7FFF743FC0099411A5148814265D814
:101C3000F0698007F5D50EE0FFF738FC009007E06B
:101C40005CE0FFF733FC0099411A4948814255D8BE
:101C5000F0698007F5D4002F04D0E96B012000075C
:101C60008143E963E069002873D0A9688906490FB8
:101C700002294DD0012636060228286805D0B04337
:101C80002860FFF713FC04463AE0B0432860FFF7F2
:101C90000DFC074604E0FFF709FCC01B02282DD805
:101CA00028688001F7D4616A206AA26A0843E16A61
:101CB000120211430843216B0843E9682D4A114081
:101CC0000843E860286830432860E868012100E0A4
:101CD0003DE009070843E860FFF7E8FB044604E03D
:101CE000FFF7E4FB001B022808D828688001F7D51D
:101CF0002FE0FFF7DBFB001B022801D90320F8BD12
:101D000028688001F5D4E8681B490840E86020E0B5
:101D10000128F4D0E868226A8107890F914216D120
:101D20007021626A0140914211D17F21A26A0902A9
:101D30000140120291420AD11F214904E26A014086
:101D4000914204D1400F216B4007884201D001200D
:101D5000F8BD0020F8BD0000001002400024F4008F
:101D6000A8000020A00000204010024000700040A9
:101D7000881300008C80C11FFCFFFEEF094910B5DD
:101D8000401E884201D9012010BD074C606103212B
:101D9000081F00F0AFFE0020A06107202061002096
:101DA00010BD0000FFFFFF0000E000E0704770473B
:101DB000704770B5040005D025462035687F00289F
:101DC00002D006E0012070BD00202877204600F0F8
:101DD00017F802206877211D206800F00BFC012213
:101DE00040342272AA77EA7722706270A270E270A1
:101DF00022716271A271E2716A77002070BD0000E9
:101E000008B5144A0168144891420ED102680121B4
:101E100049040A430260006800220840009011460D
:101E20001520FFF7E9FB152010E00C4A91420FD175
:101E30000268012189040A43026000680022084008
:101E4000009011461620FFF7D7FB1620FFF7C8FBBE
:101E500008BD00000044014040100240004801401D
:101E60007047000070B50446006801690025C94349
:101E70008907002915DBC168C943890711D4E91E08
:101E8000016101202077206880698007204602D008
:101E9000FFF7E6FF04E000F0A7F8204600F0A5F801
:101EA000257720680169C943490717D4C168C94328
:101EB000490713D40421C943016102202077206817
:101EC00080698005800F204602D0FFF7C9FF04E03B
:101ED00000F08AF8204600F088F82577206801692C
:101EE000C943090716D4C168C943090712D4082198
:101EF000C9430161042020772068C069800720461B
:101F000002D0FFF7ADFF04E000F06EF8204600F0CD
:101F10006CF8257720680169C943C90617D4C168E0
:101F2000C943C90613D41021C94301610820207791
:101F30002068C0698005800F204602D0FFF790FF1F
:101F400004E000F051F8204600F04FF825772068B3
:101F50000169C943C90708D1C168C943C90704D188
:101F6000891E0161204600F041F820680169C943DB
:101F7000090609D4C168C943090605D48021C943AB
:101F800001612046FFF713FF20680169C943C905B5
:101F900008D4C168C943090604D412490161204626
:101FA000FFF704FF20680169C943490609D4C168E5
:101FB000C943490605D44021C9430161204600F0C8
:101FC00016F820680169C943890609D4C168C94364
:101FD000890605D42021C94301612046FFF7E8FEA8
:101FE00070BD0000FFFEFFFF7047704770477047ED
:101FF000704770477047704770470000F8B5036836
:102000000446D96918689A68B24D0E462E40254696
:102010008035002E75D0B04EB04F16400740374384
:102020006ED0CF0706D0C70504D501271F62EB6825
:102030003B43EB608B0708D5D30706D02768022304
:102040003B62EB6804273B43EB604B0708D5D307A3
:1020500006D0276804233B62EB6802273B43EB6012
:102060000B0709D520230340334305D026680823F6
:102070003362EE681E43EE600B0509D5430107D5B8
:1020800001232668DB023362EB6820263343EB60D2
:10209000EB68002B42D089060AD520210840C905EB
:1020A0000A40104304D0216F002901D02046884700
:1020B000E86821688968490602D42821084232D09C
:1020C000204600F075FB21688868400627D5EFF3AD
:1020D0001080012282F310888B68402293438B602A
:1020E00080F31088E06F002819D07D498163E06F8C
:1020F000FFF7DEF8002811D0E06F816B0DE000E003
:1021000017E08E0615D5012720263F070640174009
:102110003E430ED0216FB1E020468847F8BD2046EF
:10212000FFF76AFFF8BD2046FFF766FF0020E86072
:10213000F8BDE66E012E7CD1CE067AD5C60678D5DE
:1021400010221A6223689868264640064036002806
:1021500047DAE16F086840680004000CE8D0B78BEC
:102160008742E5D9F08308680068800634D4EFF32D
:102170001080012181F3108819681701B943196093
:1021800080F31088EFF31080012181F3108821681B
:102190008B685B085B008B6080F31088EFF3108026
:1021A000012181F3108821688B684027BB438B6035
:1021B00080F310882020A8600020E066EFF31080F4
:1021C000012181F3108821680B6893430B6080F331
:1021D0001088E06FFFF732F8B08BF18B401A81B2B4
:1021E00033E0B08BF18B401A81B2F08B00289FD086
:1021F00000299DD0EFF31080012686F310881E6819
:10220000FF272137BE431E6080F31088EFF3108054
:10221000012383F3108823689E682F4FFF433E40BD
:102220009E6080F310882020A8600020E066206770
:1022300000E00EE0EFF31080012383F310882368A1
:102240001D6895431D6080F310882046FFF7D0FE7F
:10225000F8BDCE0208D5560206D501200005186249
:102260002046FFF7C8FEF8BD0E060BD501278026D5
:10227000FF0506403A40164304D0616F002900D0A4
:102280004AE7F8BD4A0614D5420612D52046EFF3B8
:102290001081012282F310881C68402294431C6044
:1022A00081F31088202169600021416700F086F8E1
:1022B000F8BD0A0205D5420003D52046FFF79AFE75
:1022C000F8BDC901FCD50028FADA2046FFF791FED7
:1022D000F8BD00000F0800000100001020010004FC
:1022E0009D27000870B5040005D025468035686834
:1022F000002802D006E0012070BD00202870204692
:1023000000F026F824206860206801684908490028
:102310000160204600F07EFA0128EDD0A06A002876
:1023200002D0204600F0A2F9206841680922D202BA
:1023300091434160206881682A229143816020682E
:102340000168012211430160204600F0F5F970BDDB
:1023500010B586B0044614216846FDF70CFF1549F8
:102360002068884224D11448C26B012149040A43E1
:10237000C263C26B0A400592426B01210A43426369
:10238000406B0491084005900C20009002200190C1
:10239000002002900390052069460007FEF7D8FF51
:1023A000002211461C20FFF727F91C20FFF718F91F
:1023B00006B010BD00440040001002407047FEE728
:1023C0008068C007C00F704780684007C00F704723
:1023D000C0680005800F01D00020704701207047C1
:1023E000026807239B059A430A430260704710B5B1
:1023F00043690424214007248C40A3438A401343AB
:10240000436110BD10B50022054B06E0DC692406CF
:10241000FCD58C5C9C62521CD2B28242F6D310BDB9
:10242000004400403EB50024184800940194164929
:10243000029401608460C460090504614160042164
:102440004161047644768476446201218462C161EC
:10245000014620310C730463446384630C77C464C5
:10246000FEF794FD002801D072B6FEE70848009000
:102470000194694602940548FEF7CCFB002801D080
:1024800072B6FEE73EBD000000240140E0070020D8
:102490000008002C10B50F480D4C4B21C9010460F9
:1024A000416000218160C16001618161C16101629F
:1024B0000C22416242618162FFF714FF002801D0C3
:1024C00072B6FEE7206820210843206010BD00009E
:1024D00000440040EC08002010B500231A4602E03A
:1024E000845C6340521C8A42FADBD8B210BDFEE71E
:1024F0007047002303804380828081607047018899
:10250000428891420CD042888168895C4288521C82
:102510004280428883889A4204D30022428001E0AC
:102520000021C9430846704710B502888388521CB1
:1025300092B2934200D8002244880023944207D1EB
:102540004288521C428042888488A24200D3438041
:102550000488826811550188491C0180018882889D
:10256000914200D3038010BD704710B5FEF7E2FF23
:1025700010BD10B592B034216846FDF7FCFD002473
:1025800001200D940E940F9440021094FFF738F838
:102590000A200090FF200130039040200590012088
:1025A0000690049407946846FFF7FCF9002801D0D0
:1025B00072B6FEE707200D900E940F940021109440
:1025C0000DA8FFF7E9F8002801D072B6FEE712B0B7
:1025D00010BD704710B50248FFF744FC10BD000065
:1025E0005408002010B50248FFF73CFC10BD000065
:1025F000A008002070B50268174B184E984201D011
:10260000B04203D17024A2434C682243144C154DB0
:10261000984208D0B04206D0134EB04203D0A04238
:1026200001D0A84204D103263602B243CE68324319
:102630008026B2434E69324302608A68C2620A68E9
:102640008262984203D0A04201D0A84201D1096918
:1026500001630121416170BD002C01400004004074
:1026600000440140004801400020004010B5018DA9
:10267000C90707D001684A6801235B049A43C36A0B
:102680001A434A60018D890707D501684A6801230A
:102690001B049A43036B1A434A60018D490707D50F
:1026A00001684A6801239B049A43436B1A434A60BA
:1026B000018D090707D501684A680123DB039A43A6
:1026C000836B1A434A60018DC90607D50268916879
:1026D00001231B039943C36B19439160018D890644
:1026E00007D501688A6801235B039A43036C1A4388
:1026F0008A60018D490612D503685A6801210905CF
:10270000446C8A4322435A60426C8A4207D1026871
:10271000516803235B059943836C19435160018D14
:10272000090607D501684A680123DB04C06C9A4397
:1027300002434A6010BD0000FEB505460026803504
:102740000446EE60FEF7B2FE019020680068124F6A
:10275000000709D501210097002249052046019B69
:1027600000F00CF900280DD12068006840070BD557
:1027700001210097002289052046019B00F0FEF808
:10278000002801D00320FEBD20206860A860E66616
:102790002E700020FEBD0000FFFFFF0110B5806A13
:1027A000002201464031CA83CA82FFF725FC10BDD2
:1027B00010B5EFF31081012282F3108802681368CC
:1027C000FF242134A343136081F31088EFF31081B9
:1027D000012282F31088026893680D4C23409360B5
:1027E00081F31088C16E01290BD1EFF31081012212
:1027F00082F31088026813681024A343136081F3E6
:102800001088202288210A500021C166016710BD6E
:10281000FEFFFFEFF8B5044680682169E2690843CE
:102820006169002511432268084311684B4B194028
:102830000143116020684168032212039143E2685A
:1028400011434160A169206A084321688A68444BAA
:102850001A4002438A602068C16A626A0909090154
:102860001143C1623F492068884211D13E48406906
:102870008007800F0FD0012806D0022802D003283D
:102880000BD103E0022109E0042107E0082105E063
:102890003649884201D1002100E010210120E3697E
:1028A000C003334A334E344F834227D1002906D028
:1028B000022907D0042907D008293FD108E0FFF7F3
:1028C00017F803E0104603E0FFF726F800283AD097
:1028D000616A4900715AFDF70BFC616840004A08C3
:1028E0008018FDF705FC01461039B94226D8224967
:1028F000491C01400007400F084322E0002906D090
:10290000022907D0042907D0082917D108E0FEF7CB
:10291000EFFF03E0104603E0FEF7FEFF002812D0B1
:10292000616A4900715AFDF7E3FB61684A08801843
:10293000FDF7DEFB01461039B94201D9012502E05D
:1029400080B22168C8602046012140304185018560
:102950000020206760672846F8BD0000F369FFCFBC
:10296000FFF4FF11003801404010024000440040D5
:102970000024F400F8340008EFFF0000FFB581B038
:1029800005461746044680350A9E54E0701C52D016
:10299000FEF78CFD0499401AB0422FD8002E2DD09E
:1029A00020680168490746D5C069C043000542D484
:1029B00001202168C0020862EFF31080012181F339
:1029C000108821680B68FF22A13293430B6080F3CB
:1029D0001088EFF31080012181F3108821688A6844
:1029E000520852008A6080F3108820206860A86036
:1029F000E86000202870032005B0F0BDEFF31080E0
:102A0000012181F3108821680A68FF23A1339A43CA
:102A10000A6080F31088EFF31080012181F31088A1
:102A200021688A68520852008A6080F3108820204A
:102A30006860A860DDE72068C1690298884304D017
:102A40000020B842A2D00020D6E70120F9E700001C
:102A500010B50648406AC1B2054801700548FFF745
:102A600063FD0548FFF7CAFA10BD000000440040AE
:102A700098000020D4060020EC0800200FB410B508
:102A800003A9044B044A029800F0DCF810BC08BC0F
:102A900004B018472D2F0008AC0000200FB410B56B
:102AA00004A9074B02AA039800F0CCF8044602A937
:102AB000002000F035FA204610BC08BC04B01847CE
:102AC000212F00082021020C01D010211046020AFB
:102AD00001D010460839020901D01046091F8208AA
:102AE00001D01046891E420801D0881E7047081A7E
:102AF000704700008307FF22DB0E9A408907090E0A
:102B00009940002808DB830809489B001B181868B7
:102B100090430843186070470007000F0838830887
:102B200004489B001B18D86990430843D86170473C
:102B300000E400E000ED00E000487047B000002035
:102B4000F8B504464F1EC8000838211815461E4621
:102B5000086849683A4606239A4310D02A46334605
:102B6000FDF7EAFB3A46D200083AA3181A687F1E1E
:102B70005B68FDF72FFB06223B469343EED1022F05
:102B800023D0042F11D0062F2FD12A463346FDF72C
:102B9000D3FBE36AA26AFDF71DFB2A463346FDF725
:102BA000CBFB636A226AFDF715FB2A463346FDF725
:102BB000C3FBE369A269FDF70DFB2A463346FDF727
:102BC000BBFB63692269FDF705FB2A463346FDF727
:102BD000B3FBE368A268FDF7FDFA2A463346FDF72A
:102BE000ABFB63682268FDF7F5FAF8BD002210B56B
:102BF000134610460149FDF707FC10BD0000F03FE9
:102C000010B50122FDF7CDFD10BD002210B5134611
:102C100010461146FDF7F8FB10BD02E008C8121F70
:102C200008C1002AFAD170477047002001E001C1B5
:102C3000121F002AFBD1704701490860704700004D
:102C4000B0000020FFB58FB00F460446002606E016
:102C500025280AD0129A11999047641C761C207876
:102C60000028F5D1304613B0F0BD00250121A14A5E
:102C7000009500E00543641C23780846203B9840FB
:102C80001042F7D120782E2815D104200543607812
:102C9000641C2A280AD101CF641C00900BE0009923
:102CA0000A22514330394018641C009020780146B4
:102CB00030390929F3D920786C280ED004DC4C284F
:102CC00013D06A2812D104E074280ED07A280DD1CE
:102CD0000BE001204005054307E00121090562786A
:102CE0000D43824201D16D18641C641C2078864615
:102CF00069284AD008DC0028B4D058286DD0632851
:102D000010D0642808D140E070286BD0732812D00E
:102D1000752860D0782860D0129A70461199904733
:102D2000761CE5E03878694608720020487202A8EF
:102D30000190012003E0386801900020C0433F1D4E
:102D400069070CD5002500E06D1C00998D420FDA53
:102D50008542F9DB0199495D0029F5D108E000259C
:102D600000E06D1C8542FCDB0199495D0029F8D12A
:102D7000761907E0019801990078491C0191129A8F
:102D8000119990476D1EF5D2B2E00A200290002101
:102D90006802400F039102280CD001CFC11784466E
:102DA00000290DDA624608465242002181419446CC
:102DB0002D2008E0FF1DFF08FF0003CF8446EFE74A
:102DC000280504D52B206A46107401203CE0E80752
:102DD0003AD02020F7E70A2000E0102000210391DC
:102DE000029007E0102002900021042005430820F3
:102DF000039100906802400F022810D001CF0021FB
:102E0000844600200D9028071FD5704670280CD0EE
:102E1000029A1020039B42401A430CD015E0FF1D7C
:102E2000FF08FF0003CF8446EBE740206A4610749A
:102E300001200D900CE06046084306D030206A4621
:102E400010747046507402200D907046582804D0BB
:102E500029A001900DA80E900DE02CA0F9E7604686
:102E6000039B029AFDF7A2FB019B84469B5C0E9A92
:102E7000521E0E92137060460843F0D10E9805A9B9
:102E8000081A20300190680701D5009801E0012060
:102E900000900199884203DD01460198081A00E07C
:102EA00000200025009006E004A8129A405D1199C8
:102EB00090476D1C761C0D988542F5DB04E0129A54
:102EC000302011999047761C0099481E00900029E7
:102ED000F5DC08E00E980E990078491C0E91129AC4
:102EE00011999047761C0199481E01900029F1DC48
:102EF000641CB4E6092801003031323334353637EA
:102F00003839616263646566000000003031323335
:102F100034353637383941424344454600000000D5
:102F20000A68531C0B601070704700000349CA699F
:102F30001206D20FFBD088627047000000440040A8
:102F4000F0B5C54A00248FB091420ADA4B005B0805
:102F5000934206D801254A006D05EA4205D10028B2
:102F600003D0FFF74DFE0FB0F0BD01252D05A9429E
:102F700019DA034308D0002910DA0120FFF75CFEBC
:102F8000FFF743FE0FB0F0BD0220FFF755FEFFF73D
:102F90002DFE0122D20751400FB0F0BD3524E4438D
:102FA0003622FDF7FEFB0A15AC4B1219D4180A03A2
:102FB000120BAB49AB4B56182E40314659401143CA
:102FC0000192321512190B920022FDF7A7F9019A0E
:102FD0000446921C1003A44E000B0D467E440328A9
:102FE00060D2204673683268FDF7B8FA1CD10B989E
:102FF000002815D0FDF7ECFB04460E469B4A9C4B7F
:10300000FDF79AF90D4607469A4A9B4B20463146F2
:10301000FDF792F93A462B46FDF7DCF80FB0F0BD0C
:10302000716830680FB0F0BD944A954B2046294630
:10303000FDF782F90022934BFDF776F906460F461D
:1030400022462B4610461946FDF776F932463B4696
:10305000FDF772F906460B980F4600281DD0FDF7C4
:10306000B7FB824A824B05910490FDF765F9324621
:103070003B46FDF759F922462B46FDF74FF904462A
:103080000D467C4A7C4B05990498FDF755F922467C
:103090002B46FDF743F90FB0F0BD0B4632462046F4
:1030A0002946C4E0012300229B072046FDF792F841
:1030B00002460B4620462946FDF7A6F906460F466E
:1030C0000B98FDF785FB32463B4605910490104670
:1030D0001946FDF731F909910C906B490198099B4C
:1030E000421800920C9A19461046FDF725F902463F
:1030F00007910A90654901980B1A654801930321CD
:103100007844079BFFF71CFD079B0A9AFDF714F90B
:103110000E905F480D9104217844079B0A9AFFF7AF
:103120000FFD099B0C9AFDF707F9019B009A1A43C2
:1031300000920D9B0E9AFDF74DF8009A01910C90AC
:10314000002A4DDD0022D24320462946FDF729FB07
:1031500022462B46FDF7F0F800910A900B980028C4
:103160002BD0424A424B05990498FDF7E5F80791A8
:103170000E90019B0C9A00990A98FDF72BF83246A5
:103180003B46FDF7D9F8079B0E9AFDF723F8009B05
:103190000A9AFDF7C9F822462B46FDF7BFF8044608
:1031A0000D46344A344B05990498FDF7C5F822467C
:1031B0002B46FDF7B3F80FB0F0BD019B0C9A0A98AF
:1031C000FDF708F832463B46FDF7B6F8009B0A9A31
:1031D000FDF7AAF822462B46FDF7A6F80FB0F0BD82
:1031E0000B98002827D0214A214B05990498FDF718
:1031F000A3F80791009020462946019B0C9AFDF701
:103200008DF832463B46FDF797F8079B009AFDF78D
:1032100085F822462B46FDF781F804460D46154AEF
:10322000154B05990498FDF787F822462B46FDF7C4
:1032300075F80FB0F0BD0B46204629460C9AFDF7F5
:103240006DF832463B46FDF777F822462B46FDF7F0
:103250006BF80FB0F0BD00000000F07F01FCFFFF35
:10326000645F09000000F03FC8050000763C793536
:10327000EF39EA3D0000E0FE422EE63F5555555538
:103280005555D53F0000E03F86EBF9FF51B80600E9
:103290006C04000008B53D4C00256571FEF752F93D
:1032A000FFF767F93A48426B02210A434263426BD7
:1032B0000A400092416B012211434163406B354942
:1032C000104000903448354E22C005608560C560CE
:1032D000466005610838FEF76CFD002801D072B623
:1032E000FEE72D482E494C3022C005608560C56040
:1032F000466005610838FEF75CFD002801D072B613
:10330000FEE7FFF78FF8FFF7C5F823482549103887
:103310000160062141602449C1608160FEF7CCF85C
:10332000002801D072B6FEE77D200001FDF7FEFF08
:103330001E48FFF7A3FB1E49FF22084601320C3846
:10334000FFF7D7F81B4988681B4A1040401C88606B
:103350001A4E1B4D10481038FEF7E4F8304600F0C6
:1033600031F8FDF7E5FA60790028F3D1FEF79EF811
:103370002169401AA842EDD9044958204031FFF78D
:1033800041F8FEF793F82061E4E700000000002018
:10339000001002400044014054080020FFFF0000DC
:1033A000004801400030004071020000383600083B
:1033B000E006002000240140E8FFFF7F6E0F0000C0
:1033C0001F4E0000F1B582B03D4C0B20FDF79AFA7C
:1033D000FDF7A6FAFDF790FA0090FDF78DF83A4F49
:1033E000384A3B46FCF7A8FF0022384BFDF70CF8A3
:1033F000616205460E4620622A4633463148394608
:10340000FCF78CFF074601910022314B28463146DC
:10341000FCF792FF3A46019BFCF7F6FFE163A063DD
:10342000074601910298FDF767F805460E4600220F
:10343000274B38460199FCF7E7FFFFF781FD2A4645
:103440003346FCF7E1FF234A234BFCF7C3FE234D31
:1034500002460B4600202946FCF7D6FFE162194AD6
:103460001F4BA062FCF75AFF00222B46FCF7B2FE6E
:1034700000221C4BFCF760FF616305460E4620638B
:10348000FDF748F86178184B8A009850491C617024
:103490000022164B28463146FDF760F80AD3002279
:1034A000134B616B206BFDF76DF803D31149009846
:1034B000884201D1002001E0E068401CE060FEBDD0
:1034C000000000206666666666660A4000FEAF4041
:1034D0000088C34083DBB5DCE1796B3F0000F03F3F
:1034E0006612714000002440B401002000C072C088
:1034F00000408F40FF0F00000100020004000600A2
:1035000008000A000C0010002000400080000001AC
:1035100000000000000000000000000000000000AB
:10352000000000000000000000000000000000009B
:103530000100000002000000030000000400000081
:10354000060000000700000008000000090000005D
:10355000000000000000000000000000000000006B
:103560000100000002000000030000000400000051
:1035700004FA97999999D93FAF788E1DC571CC3FC0
:103580009FC678D0099AC33F935555555555E53F89
:10359000599322942449D23FDE03CB966446C73F19
:1035A00044523EDF12F1C23F000000000000000064
:1035B0000040404040404040404041414141414046
:1035C00040404040404040404040404040404040FB
:1035D000400502020202020202020202020202028A
:1035E000022020202020202020202002020202028F
:1035F00002029090909090901010101010101010E7
:1036000010101010101010101010101002020202F2
:103610000202888888888888080808080808080836
:103620000808080808080808080808080202020232
:1036300040000000B13500082341435430312D448F
:103640005331384232302F46573A53544D38535F36
:103650005374645065726970685F4472697665720C
:103660002D56657273696F6E3A322E332E302F49A4
:10367000443A32382D37322D45302D38332D3042F3
:103680002D30302D30302D41332F38300D0A0000D1
:10369000B036000800000020B40000001A2C00081A
:1036A00064370008B4000020CC0C00002A2C00086D
:1036B0000000000100000000000000000000000009
:1036C00000000000000000000000000000000000FA
:1036D00000000000000000000000000000000000EA
:1036E00000000000000000000000000000000000DA
:1036F0002341435430312D445331384232302F4628
:10370000573A53544D38535F53746450657269701F
:10371000685F4472697665722D56657273696F6E63
:103720003A322E332E302F49443A32382D37322D4B
:1037300045302D38332D30422D30302D30302D4155
:10374000332F38300D0A0000000000000100000097
:1037500004000000000000000024F400000000004D
:043760000000000065
:04000005080000C12E
:00000001FF
